{
	"data": {
		"bytecode": {
			"linkReferences": {},
			"object": "6101006040526007805460ff191690553480156200001b575f80fd5b506040516200207f3803806200207f8339810160408190526200003e9162000303565b81858560036200004f838262000422565b5060046200005e828262000422565b5050506001600160a01b0381166200009057604051631e4fbdf760e01b81525f60048201526024015b60405180910390fd5b6200009b81620001d8565b50600160065582620001045760405162461bcd60e51b815260206004820152602b60248201527f4d61726b657420636170207468726573686f6c64206d7573742062652067726560448201526a061746572207468616e20360ac1b606482015260840162000087565b6001600160a01b0381166200015c5760405162461bcd60e51b815260206004820152601a60248201527f496e76616c69642044455820726f757465722061646472657373000000000000604482015260640162000087565b6001600160a01b038216620001b45760405162461bcd60e51b815260206004820152601760248201527f496e76616c69642063726561746f722061646472657373000000000000000000604482015260640162000087565b60a0929092526001600160a01b0390811660c0521660805250504260e052620004ea565b600580546001600160a01b038381166001600160a01b0319831681179093556040519116919082907f8be0079c531659141344cd1fd0a4f28419497f9722a3daafe3b4186f6b6457e0905f90a35050565b634e487b7160e01b5f52604160045260245ffd5b5f82601f8301126200024d575f80fd5b81516001600160401b03808211156200026a576200026a62000229565b604051601f8301601f19908116603f0116810190828211818310171562000295576200029562000229565b81604052838152602092508683858801011115620002b1575f80fd5b5f91505b83821015620002d45785820183015181830184015290820190620002b5565b5f93810190920192909252949350505050565b80516001600160a01b0381168114620002fe575f80fd5b919050565b5f805f805f60a0868803121562000318575f80fd5b85516001600160401b03808211156200032f575f80fd5b6200033d89838a016200023d565b9650602088015191508082111562000353575f80fd5b5062000362888289016200023d565b945050604086015192506200037a60608701620002e7565b91506200038a60808701620002e7565b90509295509295909350565b600181811c90821680620003ab57607f821691505b602082108103620003ca57634e487b7160e01b5f52602260045260245ffd5b50919050565b601f8211156200041d575f81815260208120601f850160051c81016020861015620003f85750805b601f850160051c820191505b81811015620004195782815560010162000404565b5050505b505050565b81516001600160401b038111156200043e576200043e62000229565b62000456816200044f845462000396565b84620003d0565b602080601f8311600181146200048c575f8415620004745750858301515b5f19600386901b1c1916600185901b17855562000419565b5f85815260208120601f198616915b82811015620004bc578886015182559484019460019091019084016200049b565b5085821015620004da57878501515f19600388901b60f8161c191681555b5050505050600190811b01905550565b60805160a05160c05160e051611b3e620005415f395f818161045901526107e601525f81816101ce015261146601525f81816103800152610c2501525f818161026c015281816113dd015261149b0152611b3e5ff3fe6080604052600436106101b2575f3560e01c80638da5cb5b116100e7578063d96a094a11610087578063f2b6032311610062578063f2b6032314610505578063f2fde38b14610524578063fdc42ee414610543578063ff332ab714610562575f80fd5b8063d96a094a1461049a578063dd62ed3e146104ad578063eb91d37e146104f1575f80fd5b8063a9059cbb116100c2578063a9059cbb14610415578063b79550be14610434578063cf09e0d014610448578063d79875eb1461047b575f80fd5b80638da5cb5b146103d057806390825c28146103ed57806395d89b4114610401575f80fd5b8063313ce5671161015257806370a082311161012d57806370a082311461033b57806370b0aec51461036f578063715018a6146103a25780637c5e2795146103b8575f80fd5b8063313ce567146102f057806348fc51351461030b5780636d25d80214610324575f80fd5b80630758d9241161018d5780630758d9241461025b578063095ea7b31461028e57806318160ddd146102bd57806323b872dd146102d1575f80fd5b806302d05d3f146101bd57806306fd9bf61461020d57806306fdde031461023a575f80fd5b366101b957005b5f80fd5b3480156101c8575f80fd5b506101f07f000000000000000000000000000000000000000000000000000000000000000081565b6040516001600160a01b0390911681526020015b60405180910390f35b348015610218575f80fd5b5061022c610227366004611775565b610588565b604051908152602001610204565b348015610245575f80fd5b5061024e6106a2565b60405161020491906117d9565b348015610266575f80fd5b506101f07f000000000000000000000000000000000000000000000000000000000000000081565b348015610299575f80fd5b506102ad6102a836600461180d565b610732565b6040519015158152602001610204565b3480156102c8575f80fd5b5060025461022c565b3480156102dc575f80fd5b506102ad6102eb366004611835565b61074b565b3480156102fb575f80fd5b5060405160128152602001610204565b348015610316575f80fd5b506007546102ad9060ff1681565b34801561032f575f80fd5b5061022c633b9aca0081565b348015610346575f80fd5b5061022c61035536600461186e565b6001600160a01b03165f9081526020819052604090205490565b34801561037a575f80fd5b5061022c7f000000000000000000000000000000000000000000000000000000000000000081565b3480156103ad575f80fd5b506103b661076e565b005b3480156103c3575f80fd5b5061022c64174876e80081565b3480156103db575f80fd5b506005546001600160a01b03166101f0565b3480156103f8575f80fd5b5061022c610781565b34801561040c575f80fd5b5061024e6107b5565b348015610420575f80fd5b506102ad61042f36600461180d565b6107c4565b34801561043f575f80fd5b506103b66107d1565b348015610453575f80fd5b5061022c7f000000000000000000000000000000000000000000000000000000000000000081565b348015610486575f80fd5b506103b6610495366004611887565b610957565b6103b66104a8366004611775565b610ae5565b3480156104b8575f80fd5b5061022c6104c73660046118a7565b6001600160a01b039182165f90815260016020908152604080832093909416825291909152205490565b3480156104fc575f80fd5b5061022c610c67565b348015610510575f80fd5b5061022c61051f366004611775565b610c8f565b34801561052f575f80fd5b506103b661053e36600461186e565b610d96565b34801561054e575f80fd5b5061022c61055d366004611775565b610dd0565b34801561056d575f80fd5b50610576610e4d565b604051610204969594939291906118d8565b5f8082116105e75760405162461bcd60e51b815260206004820152602160248201527f45544820616d6f756e74206d7573742062652067726561746572207468616e206044820152600360fc1b60648201526084015b60405180910390fd5b5f6105fa83670de0b6b3a7640000611936565b90505f61060c6002633b9aca00611961565b90505f81633b9aca0061061e60025490565b6106289190611936565b6106379064174876e800611980565b6106419190611993565b9050825f81610651856004611936565b61065b9190611936565b6106658480611936565b61066f9190611980565b90505f61067b82610f4a565b9050633b9aca0061068c8583611993565b6106969190611961565b98975050505050505050565b6060600380546106b1906119a6565b80601f01602080910402602001604051908101604052809291908181526020018280546106dd906119a6565b80156107285780601f106106ff57610100808354040283529160200191610728565b820191905f5260205f20905b81548152906001019060200180831161070b57829003601f168201915b5050505050905090565b5f3361073f8185856110a2565b60019150505b92915050565b5f336107588582856110b4565b610763858585611130565b506001949350505050565b61077661118d565b61077f5f6111ba565b565b5f670de0b6b3a764000061079460025490565b61079c610c67565b6107a69190611936565b6107b09190611961565b905090565b6060600480546106b1906119a6565b5f3361073f818585611130565b6107d961118d565b6107e161120b565b61080e7f000000000000000000000000000000000000000000000000000000000000000062278d00611980565b421161085c5760405162461bcd60e51b815260206004820152601a60248201527f546f6f206561726c7920746f207265636f7665722066756e647300000000000060448201526064016105de565b60075460ff16156108af5760405162461bcd60e51b815260206004820152601760248201527f416c7265616479206d6967726174656420746f2044455800000000000000000060448201526064016105de565b305f90815260208190526040902054479081156108e1576108e16108db6005546001600160a01b031690565b83611264565b801561090357610903306108fd6005546001600160a01b031690565b83611130565b60055460408051848152602081018490526001600160a01b03909216917f44996f6cc3ff7974d5f806d35d5a1d7fb9a281d032ee4a8a2dcc25a7cb646b69910160405180910390a2505061077f6001600655565b61095f61120b565b60075460ff16156109ae5760405162461bcd60e51b81526020600482015260196024820152780a8e4c2c8d2dcce40d2e640dcdeee40dedc40e8d0ca40888ab603b1b60448201526064016105de565b5f82116109cd5760405162461bcd60e51b81526004016105de906119de565b335f90815260208190526040902054821115610a2b5760405162461bcd60e51b815260206004820152601a60248201527f496e73756666696369656e7420746f6b656e2062616c616e636500000000000060448201526064016105de565b5f610a3583610c8f565b905081811015610a875760405162461bcd60e51b815260206004820152601860248201527f536c6970706167653a20746f6f206c6974746c6520455448000000000000000060448201526064016105de565b610a9133846112f0565b610a9b3382611264565b604080518481526020810183905233917fbac9694ac0daa55169abd117086fe32c89401d9a3b15dd1d34e55e0aa4e47a9d910160405180910390a250610ae16001600655565b5050565b610aed61120b565b60075460ff1615610b3c5760405162461bcd60e51b81526020600482015260196024820152780a8e4c2c8d2dcce40d2e640dcdeee40dedc40e8d0ca40888ab603b1b60448201526064016105de565b5f3411610b825760405162461bcd60e51b81526020600482015260146024820152734d7573742073656e642045544820746f2062757960601b60448201526064016105de565b5f610b8c34610588565b905081811015610bde5760405162461bcd60e51b815260206004820152601860248201527f536c6970706167653a20746f6f2066657720746f6b656e73000000000000000060448201526064016105de565b610be83382611324565b604080513481526020810183905233917fa9a40dec7a304e5915d11358b968c1e8d365992abf20f82285d1df1b30c8e24c910160405180910390a27f0000000000000000000000000000000000000000000000000000000000000000610c4c610781565b10610c5957610c59611358565b50610c646001600655565b50565b5f633b9aca00610c7660025490565b610c809190611936565b6107b09064174876e800611980565b5f808211610caf5760405162461bcd60e51b81526004016105de906119de565b81610cb960025490565b1015610d125760405162461bcd60e51b815260206004820152602260248201527f43616e6e6f742073656c6c206d6f7265207468616e20746f74616c20737570706044820152616c7960f01b60648201526084016105de565b5f610d1c60025490565b90505f610d2d633b9aca0083611936565b610d3c9064174876e800611980565b90505f610d4d633b9aca0086611936565b610d579083611993565b9050670de0b6b3a7640000856002610d6f8585611980565b610d799190611961565b610d839190611936565b610d8d9190611961565b95945050505050565b610d9e61118d565b6001600160a01b038116610dc757604051631e4fbdf760e01b81525f60048201526024016105de565b610c64816111ba565b5f808211610df05760405162461bcd60e51b81526004016105de906119de565b5f610dfa60025490565b90505f610e0b633b9aca0083611936565b610e1a9064174876e800611980565b90505f610e2b633b9aca0086611936565b610e359083611980565b9050670de0b6b3a7640000856002610d6f8486611980565b6060805f805f80306001600160a01b03166306fdde036040518163ffffffff1660e01b81526004015f60405180830381865afa158015610e8f573d5f803e3d5ffd5b505050506040513d5f823e601f3d908101601f19168201604052610eb69190810190611a35565b306001600160a01b03166395d89b416040518163ffffffff1660e01b81526004015f60405180830381865afa158015610ef1573d5f803e3d5ffd5b505050506040513d5f823e601f3d908101601f19168201604052610f189190810190611a35565b610f20610c67565b610f28610781565b60075460ff16610f3760025490565b949b939a50919850965094509092509050565b5f60018211610f57575090565b816001600160801b8210610f705760809190911c9060401b5b680100000000000000008210610f8b5760409190911c9060201b5b6401000000008210610fa25760209190911c9060101b5b620100008210610fb75760109190911c9060081b5b6101008210610fcb5760089190911c9060041b5b60108210610fde5760049190911c9060021b5b60048210610fea5760011b5b600302600190811c908185816110025761100261194d565b048201901c9050600181858161101a5761101a61194d565b048201901c905060018185816110325761103261194d565b048201901c9050600181858161104a5761104a61194d565b048201901c905060018185816110625761106261194d565b048201901c9050600181858161107a5761107a61194d565b048201901c90506110998185816110935761109361194d565b04821190565b90039392505050565b6110af8383836001611554565b505050565b6001600160a01b038381165f908152600160209081526040808320938616835292905220545f1981101561112a578181101561111c57604051637dc7a0d960e11b81526001600160a01b038416600482015260248101829052604481018390526064016105de565b61112a84848484035f611554565b50505050565b6001600160a01b03831661115957604051634b637e8f60e11b81525f60048201526024016105de565b6001600160a01b0382166111825760405163ec442f0560e01b81525f60048201526024016105de565b6110af838383611626565b6005546001600160a01b0316331461077f5760405163118cdaa760e01b81523360048201526024016105de565b600580546001600160a01b038381166001600160a01b0319831681179093556040519116919082907f8be0079c531659141344cd1fd0a4f28419497f9722a3daafe3b4186f6b6457e0905f90a35050565b60026006540361125d5760405162461bcd60e51b815260206004820152601f60248201527f5265656e7472616e637947756172643a207265656e7472616e742063616c6c0060448201526064016105de565b6002600655565b8047101561128e5760405163cf47918160e01b8152476004820152602481018290526044016105de565b5f80836001600160a01b0316836040515f6040518083038185875af1925050503d805f81146112d8576040519150601f19603f3d011682016040523d82523d5f602084013e6112dd565b606091505b50915091508161112a5761112a8161174c565b6001600160a01b03821661131957604051634b637e8f60e11b81525f60048201526024016105de565b610ae1825f83611626565b6001600160a01b03821661134d5760405163ec442f0560e01b81525f60048201526024016105de565b610ae15f8383611626565b6007805460ff19166001179055475f61137060025490565b90505f8211801561138057505f81115b6113d75760405162461bcd60e51b815260206004820152602260248201527f496e73756666696369656e742062616c616e636520666f72206d69677261746960448201526137b760f11b60648201526084016105de565b611402307f0000000000000000000000000000000000000000000000000000000000000000836110a2565b5f6064611410836063611936565b61141a9190611961565b90505f606461142a856063611936565b6114349190611961565b60405163f305d71960e01b81523060048201526024810185905260448101849052606481018290526001600160a01b037f0000000000000000000000000000000000000000000000000000000000000000811660848301524260a48301529192505f9182917f00000000000000000000000000000000000000000000000000000000000000009091169063f305d71990889060c40160606040518083038185885af11580156114e5573d5f803e3d5ffd5b50505050506040513d601f19601f8201168201806040525081019061150a9190611add565b50604080518281526020810184905292945090925030917f75d484d07a3a943757ed13db85d08f5fb50eed417ef8f7b237e6b0d8bf5e8d3e910160405180910390a2505050505050565b6001600160a01b03841661157d5760405163e602df0560e01b81525f60048201526024016105de565b6001600160a01b0383166115a657604051634a1406b160e11b81525f60048201526024016105de565b6001600160a01b038085165f908152600160209081526040808320938716835292905220829055801561112a57826001600160a01b0316846001600160a01b03167f8c5be1e5ebec7d5bd14f71427d1e84f3dd0314c0f7b2291e5b200ac8c7c3b9258460405161161891815260200190565b60405180910390a350505050565b6001600160a01b038316611650578060025f8282546116459190611980565b909155506116c09050565b6001600160a01b0383165f90815260208190526040902054818110156116a25760405163391434e360e21b81526001600160a01b038516600482015260248101829052604481018390526064016105de565b6001600160a01b0384165f9081526020819052604090209082900390555b6001600160a01b0382166116dc576002805482900390556116fa565b6001600160a01b0382165f9081526020819052604090208054820190555b816001600160a01b0316836001600160a01b03167fddf252ad1be2c89b69c2b068fc378daa952ba7f163c4a11628f55a4df523b3ef8360405161173f91815260200190565b60405180910390a3505050565b80511561175c5780518082602001fd5b60405163d6bda27560e01b815260040160405180910390fd5b5f60208284031215611785575f80fd5b5035919050565b5f5b838110156117a657818101518382015260200161178e565b50505f910152565b5f81518084526117c581602086016020860161178c565b601f01601f19169290920160200192915050565b602081525f6117eb60208301846117ae565b9392505050565b80356001600160a01b0381168114611808575f80fd5b919050565b5f806040838503121561181e575f80fd5b611827836117f2565b946020939093013593505050565b5f805f60608486031215611847575f80fd5b611850846117f2565b925061185e602085016117f2565b9150604084013590509250925092565b5f6020828403121561187e575f80fd5b6117eb826117f2565b5f8060408385031215611898575f80fd5b50508035926020909101359150565b5f80604083850312156118b8575f80fd5b6118c1836117f2565b91506118cf602084016117f2565b90509250929050565b60c081525f6118ea60c08301896117ae565b82810360208401526118fc81896117ae565b604084019790975250506060810193909352901515608083015260a09091015292915050565b634e487b7160e01b5f52601160045260245ffd5b808202811582820484141761074557610745611922565b634e487b7160e01b5f52601260045260245ffd5b5f8261197b57634e487b7160e01b5f52601260045260245ffd5b500490565b8082018082111561074557610745611922565b8181038181111561074557610745611922565b600181811c908216806119ba57607f821691505b6020821081036119d857634e487b7160e01b5f52602260045260245ffd5b50919050565b60208082526023908201527f546f6b656e20616d6f756e74206d75737420626520677265617465722074686160408201526206e20360ec1b606082015260800190565b634e487b7160e01b5f52604160045260245ffd5b5f60208284031215611a45575f80fd5b815167ffffffffffffffff80821115611a5c575f80fd5b818401915084601f830112611a6f575f80fd5b815181811115611a8157611a81611a21565b604051601f8201601f19908116603f01168101908382118183101715611aa957611aa9611a21565b81604052828152876020848701011115611ac1575f80fd5b611ad283602083016020880161178c565b979650505050505050565b5f805f60608486031215611aef575f80fd5b835192506020840151915060408401519050925092509256fea2646970667358221220554f3fedf29291c5a0489d97a5344a2d2b46ddbdd1cad85ea7aa0cfcefcf50eb64736f6c63430008140033",
			"opcodes": "PUSH2 0x100 PUSH1 0x40 MSTORE PUSH1 0x7 DUP1 SLOAD PUSH1 0xFF NOT AND SWAP1 SSTORE CALLVALUE DUP1 ISZERO PUSH3 0x1B JUMPI PUSH0 DUP1 REVERT JUMPDEST POP PUSH1 0x40 MLOAD PUSH3 0x207F CODESIZE SUB DUP1 PUSH3 0x207F DUP4 CODECOPY DUP2 ADD PUSH1 0x40 DUP2 SWAP1 MSTORE PUSH3 0x3E SWAP2 PUSH3 0x303 JUMP JUMPDEST DUP2 DUP6 DUP6 PUSH1 0x3 PUSH3 0x4F DUP4 DUP3 PUSH3 0x422 JUMP JUMPDEST POP PUSH1 0x4 PUSH3 0x5E DUP3 DUP3 PUSH3 0x422 JUMP JUMPDEST POP POP POP PUSH1 0x1 PUSH1 0x1 PUSH1 0xA0 SHL SUB DUP2 AND PUSH3 0x90 JUMPI PUSH1 0x40 MLOAD PUSH4 0x1E4FBDF7 PUSH1 0xE0 SHL DUP2 MSTORE PUSH0 PUSH1 0x4 DUP3 ADD MSTORE PUSH1 0x24 ADD JUMPDEST PUSH1 0x40 MLOAD DUP1 SWAP2 SUB SWAP1 REVERT JUMPDEST PUSH3 0x9B DUP2 PUSH3 0x1D8 JUMP JUMPDEST POP PUSH1 0x1 PUSH1 0x6 SSTORE DUP3 PUSH3 0x104 JUMPI PUSH1 0x40 MLOAD PUSH3 0x461BCD PUSH1 0xE5 SHL DUP2 MSTORE PUSH1 0x20 PUSH1 0x4 DUP3 ADD MSTORE PUSH1 0x2B PUSH1 0x24 DUP3 ADD MSTORE PUSH32 0x4D61726B657420636170207468726573686F6C64206D75737420626520677265 PUSH1 0x44 DUP3 ADD MSTORE PUSH11 0x61746572207468616E203 PUSH1 0xAC SHL PUSH1 0x64 DUP3 ADD MSTORE PUSH1 0x84 ADD PUSH3 0x87 JUMP JUMPDEST PUSH1 0x1 PUSH1 0x1 PUSH1 0xA0 SHL SUB DUP2 AND PUSH3 0x15C JUMPI PUSH1 0x40 MLOAD PUSH3 0x461BCD PUSH1 0xE5 SHL DUP2 MSTORE PUSH1 0x20 PUSH1 0x4 DUP3 ADD MSTORE PUSH1 0x1A PUSH1 0x24 DUP3 ADD MSTORE PUSH32 0x496E76616C69642044455820726F757465722061646472657373000000000000 PUSH1 0x44 DUP3 ADD MSTORE PUSH1 0x64 ADD PUSH3 0x87 JUMP JUMPDEST PUSH1 0x1 PUSH1 0x1 PUSH1 0xA0 SHL SUB DUP3 AND PUSH3 0x1B4 JUMPI PUSH1 0x40 MLOAD PUSH3 0x461BCD PUSH1 0xE5 SHL DUP2 MSTORE PUSH1 0x20 PUSH1 0x4 DUP3 ADD MSTORE PUSH1 0x17 PUSH1 0x24 DUP3 ADD MSTORE PUSH32 0x496E76616C69642063726561746F722061646472657373000000000000000000 PUSH1 0x44 DUP3 ADD MSTORE PUSH1 0x64 ADD PUSH3 0x87 JUMP JUMPDEST PUSH1 0xA0 SWAP3 SWAP1 SWAP3 MSTORE PUSH1 0x1 PUSH1 0x1 PUSH1 0xA0 SHL SUB SWAP1 DUP2 AND PUSH1 0xC0 MSTORE AND PUSH1 0x80 MSTORE POP POP TIMESTAMP PUSH1 0xE0 MSTORE PUSH3 0x4EA JUMP JUMPDEST PUSH1 0x5 DUP1 SLOAD PUSH1 0x1 PUSH1 0x1 PUSH1 0xA0 SHL SUB DUP4 DUP2 AND PUSH1 0x1 PUSH1 0x1 PUSH1 0xA0 SHL SUB NOT DUP4 AND DUP2 OR SWAP1 SWAP4 SSTORE PUSH1 0x40 MLOAD SWAP2 AND SWAP2 SWAP1 DUP3 SWAP1 PUSH32 0x8BE0079C531659141344CD1FD0A4F28419497F9722A3DAAFE3B4186F6B6457E0 SWAP1 PUSH0 SWAP1 LOG3 POP POP JUMP JUMPDEST PUSH4 0x4E487B71 PUSH1 0xE0 SHL PUSH0 MSTORE PUSH1 0x41 PUSH1 0x4 MSTORE PUSH1 0x24 PUSH0 REVERT JUMPDEST PUSH0 DUP3 PUSH1 0x1F DUP4 ADD SLT PUSH3 0x24D JUMPI PUSH0 DUP1 REVERT JUMPDEST DUP2 MLOAD PUSH1 0x1 PUSH1 0x1 PUSH1 0x40 SHL SUB DUP1 DUP3 GT ISZERO PUSH3 0x26A JUMPI PUSH3 0x26A PUSH3 0x229 JUMP JUMPDEST PUSH1 0x40 MLOAD PUSH1 0x1F DUP4 ADD PUSH1 0x1F NOT SWAP1 DUP2 AND PUSH1 0x3F ADD AND DUP2 ADD SWAP1 DUP3 DUP3 GT DUP2 DUP4 LT OR ISZERO PUSH3 0x295 JUMPI PUSH3 0x295 PUSH3 0x229 JUMP JUMPDEST DUP2 PUSH1 0x40 MSTORE DUP4 DUP2 MSTORE PUSH1 0x20 SWAP3 POP DUP7 DUP4 DUP6 DUP9 ADD ADD GT ISZERO PUSH3 0x2B1 JUMPI PUSH0 DUP1 REVERT JUMPDEST PUSH0 SWAP2 POP JUMPDEST DUP4 DUP3 LT ISZERO PUSH3 0x2D4 JUMPI DUP6 DUP3 ADD DUP4 ADD MLOAD DUP2 DUP4 ADD DUP5 ADD MSTORE SWAP1 DUP3 ADD SWAP1 PUSH3 0x2B5 JUMP JUMPDEST PUSH0 SWAP4 DUP2 ADD SWAP1 SWAP3 ADD SWAP3 SWAP1 SWAP3 MSTORE SWAP5 SWAP4 POP POP POP POP JUMP JUMPDEST DUP1 MLOAD PUSH1 0x1 PUSH1 0x1 PUSH1 0xA0 SHL SUB DUP2 AND DUP2 EQ PUSH3 0x2FE JUMPI PUSH0 DUP1 REVERT JUMPDEST SWAP2 SWAP1 POP JUMP JUMPDEST PUSH0 DUP1 PUSH0 DUP1 PUSH0 PUSH1 0xA0 DUP7 DUP9 SUB SLT ISZERO PUSH3 0x318 JUMPI PUSH0 DUP1 REVERT JUMPDEST DUP6 MLOAD PUSH1 0x1 PUSH1 0x1 PUSH1 0x40 SHL SUB DUP1 DUP3 GT ISZERO PUSH3 0x32F JUMPI PUSH0 DUP1 REVERT JUMPDEST PUSH3 0x33D DUP10 DUP4 DUP11 ADD PUSH3 0x23D JUMP JUMPDEST SWAP7 POP PUSH1 0x20 DUP9 ADD MLOAD SWAP2 POP DUP1 DUP3 GT ISZERO PUSH3 0x353 JUMPI PUSH0 DUP1 REVERT JUMPDEST POP PUSH3 0x362 DUP9 DUP3 DUP10 ADD PUSH3 0x23D JUMP JUMPDEST SWAP5 POP POP PUSH1 0x40 DUP7 ADD MLOAD SWAP3 POP PUSH3 0x37A PUSH1 0x60 DUP8 ADD PUSH3 0x2E7 JUMP JUMPDEST SWAP2 POP PUSH3 0x38A PUSH1 0x80 DUP8 ADD PUSH3 0x2E7 JUMP JUMPDEST SWAP1 POP SWAP3 SWAP6 POP SWAP3 SWAP6 SWAP1 SWAP4 POP JUMP JUMPDEST PUSH1 0x1 DUP2 DUP2 SHR SWAP1 DUP3 AND DUP1 PUSH3 0x3AB JUMPI PUSH1 0x7F DUP3 AND SWAP2 POP JUMPDEST PUSH1 0x20 DUP3 LT DUP2 SUB PUSH3 0x3CA JUMPI PUSH4 0x4E487B71 PUSH1 0xE0 SHL PUSH0 MSTORE PUSH1 0x22 PUSH1 0x4 MSTORE PUSH1 0x24 PUSH0 REVERT JUMPDEST POP SWAP2 SWAP1 POP JUMP JUMPDEST PUSH1 0x1F DUP3 GT ISZERO PUSH3 0x41D JUMPI PUSH0 DUP2 DUP2 MSTORE PUSH1 0x20 DUP2 KECCAK256 PUSH1 0x1F DUP6 ADD PUSH1 0x5 SHR DUP2 ADD PUSH1 0x20 DUP7 LT ISZERO PUSH3 0x3F8 JUMPI POP DUP1 JUMPDEST PUSH1 0x1F DUP6 ADD PUSH1 0x5 SHR DUP3 ADD SWAP2 POP JUMPDEST DUP2 DUP2 LT ISZERO PUSH3 0x419 JUMPI DUP3 DUP2 SSTORE PUSH1 0x1 ADD PUSH3 0x404 JUMP JUMPDEST POP POP POP JUMPDEST POP POP POP JUMP JUMPDEST DUP2 MLOAD PUSH1 0x1 PUSH1 0x1 PUSH1 0x40 SHL SUB DUP2 GT ISZERO PUSH3 0x43E JUMPI PUSH3 0x43E PUSH3 0x229 JUMP JUMPDEST PUSH3 0x456 DUP2 PUSH3 0x44F DUP5 SLOAD PUSH3 0x396 JUMP JUMPDEST DUP5 PUSH3 0x3D0 JUMP JUMPDEST PUSH1 0x20 DUP1 PUSH1 0x1F DUP4 GT PUSH1 0x1 DUP2 EQ PUSH3 0x48C JUMPI PUSH0 DUP5 ISZERO PUSH3 0x474 JUMPI POP DUP6 DUP4 ADD MLOAD JUMPDEST PUSH0 NOT PUSH1 0x3 DUP7 SWAP1 SHL SHR NOT AND PUSH1 0x1 DUP6 SWAP1 SHL OR DUP6 SSTORE PUSH3 0x419 JUMP JUMPDEST PUSH0 DUP6 DUP2 MSTORE PUSH1 0x20 DUP2 KECCAK256 PUSH1 0x1F NOT DUP7 AND SWAP2 JUMPDEST DUP3 DUP2 LT ISZERO PUSH3 0x4BC JUMPI DUP9 DUP7 ADD MLOAD DUP3 SSTORE SWAP5 DUP5 ADD SWAP5 PUSH1 0x1 SWAP1 SWAP2 ADD SWAP1 DUP5 ADD PUSH3 0x49B JUMP JUMPDEST POP DUP6 DUP3 LT ISZERO PUSH3 0x4DA JUMPI DUP8 DUP6 ADD MLOAD PUSH0 NOT PUSH1 0x3 DUP9 SWAP1 SHL PUSH1 0xF8 AND SHR NOT AND DUP2 SSTORE JUMPDEST POP POP POP POP POP PUSH1 0x1 SWAP1 DUP2 SHL ADD SWAP1 SSTORE POP JUMP JUMPDEST PUSH1 0x80 MLOAD PUSH1 0xA0 MLOAD PUSH1 0xC0 MLOAD PUSH1 0xE0 MLOAD PUSH2 0x1B3E PUSH3 0x541 PUSH0 CODECOPY PUSH0 DUP2 DUP2 PUSH2 0x459 ADD MSTORE PUSH2 0x7E6 ADD MSTORE PUSH0 DUP2 DUP2 PUSH2 0x1CE ADD MSTORE PUSH2 0x1466 ADD MSTORE PUSH0 DUP2 DUP2 PUSH2 0x380 ADD MSTORE PUSH2 0xC25 ADD MSTORE PUSH0 DUP2 DUP2 PUSH2 0x26C ADD MSTORE DUP2 DUP2 PUSH2 0x13DD ADD MSTORE PUSH2 0x149B ADD MSTORE PUSH2 0x1B3E PUSH0 RETURN INVALID PUSH1 0x80 PUSH1 0x40 MSTORE PUSH1 0x4 CALLDATASIZE LT PUSH2 0x1B2 JUMPI PUSH0 CALLDATALOAD PUSH1 0xE0 SHR DUP1 PUSH4 0x8DA5CB5B GT PUSH2 0xE7 JUMPI DUP1 PUSH4 0xD96A094A GT PUSH2 0x87 JUMPI DUP1 PUSH4 0xF2B60323 GT PUSH2 0x62 JUMPI DUP1 PUSH4 0xF2B60323 EQ PUSH2 0x505 JUMPI DUP1 PUSH4 0xF2FDE38B EQ PUSH2 0x524 JUMPI DUP1 PUSH4 0xFDC42EE4 EQ PUSH2 0x543 JUMPI DUP1 PUSH4 0xFF332AB7 EQ PUSH2 0x562 JUMPI PUSH0 DUP1 REVERT JUMPDEST DUP1 PUSH4 0xD96A094A EQ PUSH2 0x49A JUMPI DUP1 PUSH4 0xDD62ED3E EQ PUSH2 0x4AD JUMPI DUP1 PUSH4 0xEB91D37E EQ PUSH2 0x4F1 JUMPI PUSH0 DUP1 REVERT JUMPDEST DUP1 PUSH4 0xA9059CBB GT PUSH2 0xC2 JUMPI DUP1 PUSH4 0xA9059CBB EQ PUSH2 0x415 JUMPI DUP1 PUSH4 0xB79550BE EQ PUSH2 0x434 JUMPI DUP1 PUSH4 0xCF09E0D0 EQ PUSH2 0x448 JUMPI DUP1 PUSH4 0xD79875EB EQ PUSH2 0x47B JUMPI PUSH0 DUP1 REVERT JUMPDEST DUP1 PUSH4 0x8DA5CB5B EQ PUSH2 0x3D0 JUMPI DUP1 PUSH4 0x90825C28 EQ PUSH2 0x3ED JUMPI DUP1 PUSH4 0x95D89B41 EQ PUSH2 0x401 JUMPI PUSH0 DUP1 REVERT JUMPDEST DUP1 PUSH4 0x313CE567 GT PUSH2 0x152 JUMPI DUP1 PUSH4 0x70A08231 GT PUSH2 0x12D JUMPI DUP1 PUSH4 0x70A08231 EQ PUSH2 0x33B JUMPI DUP1 PUSH4 0x70B0AEC5 EQ PUSH2 0x36F JUMPI DUP1 PUSH4 0x715018A6 EQ PUSH2 0x3A2 JUMPI DUP1 PUSH4 0x7C5E2795 EQ PUSH2 0x3B8 JUMPI PUSH0 DUP1 REVERT JUMPDEST DUP1 PUSH4 0x313CE567 EQ PUSH2 0x2F0 JUMPI DUP1 PUSH4 0x48FC5135 EQ PUSH2 0x30B JUMPI DUP1 PUSH4 0x6D25D802 EQ PUSH2 0x324 JUMPI PUSH0 DUP1 REVERT JUMPDEST DUP1 PUSH4 0x758D924 GT PUSH2 0x18D JUMPI DUP1 PUSH4 0x758D924 EQ PUSH2 0x25B JUMPI DUP1 PUSH4 0x95EA7B3 EQ PUSH2 0x28E JUMPI DUP1 PUSH4 0x18160DDD EQ PUSH2 0x2BD JUMPI DUP1 PUSH4 0x23B872DD EQ PUSH2 0x2D1 JUMPI PUSH0 DUP1 REVERT JUMPDEST DUP1 PUSH4 0x2D05D3F EQ PUSH2 0x1BD JUMPI DUP1 PUSH4 0x6FD9BF6 EQ PUSH2 0x20D JUMPI DUP1 PUSH4 0x6FDDE03 EQ PUSH2 0x23A JUMPI PUSH0 DUP1 REVERT JUMPDEST CALLDATASIZE PUSH2 0x1B9 JUMPI STOP JUMPDEST PUSH0 DUP1 REVERT JUMPDEST CALLVALUE DUP1 ISZERO PUSH2 0x1C8 JUMPI PUSH0 DUP1 REVERT JUMPDEST POP PUSH2 0x1F0 PUSH32 0x0 DUP2 JUMP JUMPDEST PUSH1 0x40 MLOAD PUSH1 0x1 PUSH1 0x1 PUSH1 0xA0 SHL SUB SWAP1 SWAP2 AND DUP2 MSTORE PUSH1 0x20 ADD JUMPDEST PUSH1 0x40 MLOAD DUP1 SWAP2 SUB SWAP1 RETURN JUMPDEST CALLVALUE DUP1 ISZERO PUSH2 0x218 JUMPI PUSH0 DUP1 REVERT JUMPDEST POP PUSH2 0x22C PUSH2 0x227 CALLDATASIZE PUSH1 0x4 PUSH2 0x1775 JUMP JUMPDEST PUSH2 0x588 JUMP JUMPDEST PUSH1 0x40 MLOAD SWAP1 DUP2 MSTORE PUSH1 0x20 ADD PUSH2 0x204 JUMP JUMPDEST CALLVALUE DUP1 ISZERO PUSH2 0x245 JUMPI PUSH0 DUP1 REVERT JUMPDEST POP PUSH2 0x24E PUSH2 0x6A2 JUMP JUMPDEST PUSH1 0x40 MLOAD PUSH2 0x204 SWAP2 SWAP1 PUSH2 0x17D9 JUMP JUMPDEST CALLVALUE DUP1 ISZERO PUSH2 0x266 JUMPI PUSH0 DUP1 REVERT JUMPDEST POP PUSH2 0x1F0 PUSH32 0x0 DUP2 JUMP JUMPDEST CALLVALUE DUP1 ISZERO PUSH2 0x299 JUMPI PUSH0 DUP1 REVERT JUMPDEST POP PUSH2 0x2AD PUSH2 0x2A8 CALLDATASIZE PUSH1 0x4 PUSH2 0x180D JUMP JUMPDEST PUSH2 0x732 JUMP JUMPDEST PUSH1 0x40 MLOAD SWAP1 ISZERO ISZERO DUP2 MSTORE PUSH1 0x20 ADD PUSH2 0x204 JUMP JUMPDEST CALLVALUE DUP1 ISZERO PUSH2 0x2C8 JUMPI PUSH0 DUP1 REVERT JUMPDEST POP PUSH1 0x2 SLOAD PUSH2 0x22C JUMP JUMPDEST CALLVALUE DUP1 ISZERO PUSH2 0x2DC JUMPI PUSH0 DUP1 REVERT JUMPDEST POP PUSH2 0x2AD PUSH2 0x2EB CALLDATASIZE PUSH1 0x4 PUSH2 0x1835 JUMP JUMPDEST PUSH2 0x74B JUMP JUMPDEST CALLVALUE DUP1 ISZERO PUSH2 0x2FB JUMPI PUSH0 DUP1 REVERT JUMPDEST POP PUSH1 0x40 MLOAD PUSH1 0x12 DUP2 MSTORE PUSH1 0x20 ADD PUSH2 0x204 JUMP JUMPDEST CALLVALUE DUP1 ISZERO PUSH2 0x316 JUMPI PUSH0 DUP1 REVERT JUMPDEST POP PUSH1 0x7 SLOAD PUSH2 0x2AD SWAP1 PUSH1 0xFF AND DUP2 JUMP JUMPDEST CALLVALUE DUP1 ISZERO PUSH2 0x32F JUMPI PUSH0 DUP1 REVERT JUMPDEST POP PUSH2 0x22C PUSH4 0x3B9ACA00 DUP2 JUMP JUMPDEST CALLVALUE DUP1 ISZERO PUSH2 0x346 JUMPI PUSH0 DUP1 REVERT JUMPDEST POP PUSH2 0x22C PUSH2 0x355 CALLDATASIZE PUSH1 0x4 PUSH2 0x186E JUMP JUMPDEST PUSH1 0x1 PUSH1 0x1 PUSH1 0xA0 SHL SUB AND PUSH0 SWAP1 DUP2 MSTORE PUSH1 0x20 DUP2 SWAP1 MSTORE PUSH1 0x40 SWAP1 KECCAK256 SLOAD SWAP1 JUMP JUMPDEST CALLVALUE DUP1 ISZERO PUSH2 0x37A JUMPI PUSH0 DUP1 REVERT JUMPDEST POP PUSH2 0x22C PUSH32 0x0 DUP2 JUMP JUMPDEST CALLVALUE DUP1 ISZERO PUSH2 0x3AD JUMPI PUSH0 DUP1 REVERT JUMPDEST POP PUSH2 0x3B6 PUSH2 0x76E JUMP JUMPDEST STOP JUMPDEST CALLVALUE DUP1 ISZERO PUSH2 0x3C3 JUMPI PUSH0 DUP1 REVERT JUMPDEST POP PUSH2 0x22C PUSH5 0x174876E800 DUP2 JUMP JUMPDEST CALLVALUE DUP1 ISZERO PUSH2 0x3DB JUMPI PUSH0 DUP1 REVERT JUMPDEST POP PUSH1 0x5 SLOAD PUSH1 0x1 PUSH1 0x1 PUSH1 0xA0 SHL SUB AND PUSH2 0x1F0 JUMP JUMPDEST CALLVALUE DUP1 ISZERO PUSH2 0x3F8 JUMPI PUSH0 DUP1 REVERT JUMPDEST POP PUSH2 0x22C PUSH2 0x781 JUMP JUMPDEST CALLVALUE DUP1 ISZERO PUSH2 0x40C JUMPI PUSH0 DUP1 REVERT JUMPDEST POP PUSH2 0x24E PUSH2 0x7B5 JUMP JUMPDEST CALLVALUE DUP1 ISZERO PUSH2 0x420 JUMPI PUSH0 DUP1 REVERT JUMPDEST POP PUSH2 0x2AD PUSH2 0x42F CALLDATASIZE PUSH1 0x4 PUSH2 0x180D JUMP JUMPDEST PUSH2 0x7C4 JUMP JUMPDEST CALLVALUE DUP1 ISZERO PUSH2 0x43F JUMPI PUSH0 DUP1 REVERT JUMPDEST POP PUSH2 0x3B6 PUSH2 0x7D1 JUMP JUMPDEST CALLVALUE DUP1 ISZERO PUSH2 0x453 JUMPI PUSH0 DUP1 REVERT JUMPDEST POP PUSH2 0x22C PUSH32 0x0 DUP2 JUMP JUMPDEST CALLVALUE DUP1 ISZERO PUSH2 0x486 JUMPI PUSH0 DUP1 REVERT JUMPDEST POP PUSH2 0x3B6 PUSH2 0x495 CALLDATASIZE PUSH1 0x4 PUSH2 0x1887 JUMP JUMPDEST PUSH2 0x957 JUMP JUMPDEST PUSH2 0x3B6 PUSH2 0x4A8 CALLDATASIZE PUSH1 0x4 PUSH2 0x1775 JUMP JUMPDEST PUSH2 0xAE5 JUMP JUMPDEST CALLVALUE DUP1 ISZERO PUSH2 0x4B8 JUMPI PUSH0 DUP1 REVERT JUMPDEST POP PUSH2 0x22C PUSH2 0x4C7 CALLDATASIZE PUSH1 0x4 PUSH2 0x18A7 JUMP JUMPDEST PUSH1 0x1 PUSH1 0x1 PUSH1 0xA0 SHL SUB SWAP2 DUP3 AND PUSH0 SWAP1 DUP2 MSTORE PUSH1 0x1 PUSH1 0x20 SWAP1 DUP2 MSTORE PUSH1 0x40 DUP1 DUP4 KECCAK256 SWAP4 SWAP1 SWAP5 AND DUP3 MSTORE SWAP2 SWAP1 SWAP2 MSTORE KECCAK256 SLOAD SWAP1 JUMP JUMPDEST CALLVALUE DUP1 ISZERO PUSH2 0x4FC JUMPI PUSH0 DUP1 REVERT JUMPDEST POP PUSH2 0x22C PUSH2 0xC67 JUMP JUMPDEST CALLVALUE DUP1 ISZERO PUSH2 0x510 JUMPI PUSH0 DUP1 REVERT JUMPDEST POP PUSH2 0x22C PUSH2 0x51F CALLDATASIZE PUSH1 0x4 PUSH2 0x1775 JUMP JUMPDEST PUSH2 0xC8F JUMP JUMPDEST CALLVALUE DUP1 ISZERO PUSH2 0x52F JUMPI PUSH0 DUP1 REVERT JUMPDEST POP PUSH2 0x3B6 PUSH2 0x53E CALLDATASIZE PUSH1 0x4 PUSH2 0x186E JUMP JUMPDEST PUSH2 0xD96 JUMP JUMPDEST CALLVALUE DUP1 ISZERO PUSH2 0x54E JUMPI PUSH0 DUP1 REVERT JUMPDEST POP PUSH2 0x22C PUSH2 0x55D CALLDATASIZE PUSH1 0x4 PUSH2 0x1775 JUMP JUMPDEST PUSH2 0xDD0 JUMP JUMPDEST CALLVALUE DUP1 ISZERO PUSH2 0x56D JUMPI PUSH0 DUP1 REVERT JUMPDEST POP PUSH2 0x576 PUSH2 0xE4D JUMP JUMPDEST PUSH1 0x40 MLOAD PUSH2 0x204 SWAP7 SWAP6 SWAP5 SWAP4 SWAP3 SWAP2 SWAP1 PUSH2 0x18D8 JUMP JUMPDEST PUSH0 DUP1 DUP3 GT PUSH2 0x5E7 JUMPI PUSH1 0x40 MLOAD PUSH3 0x461BCD PUSH1 0xE5 SHL DUP2 MSTORE PUSH1 0x20 PUSH1 0x4 DUP3 ADD MSTORE PUSH1 0x21 PUSH1 0x24 DUP3 ADD MSTORE PUSH32 0x45544820616D6F756E74206D7573742062652067726561746572207468616E20 PUSH1 0x44 DUP3 ADD MSTORE PUSH1 0x3 PUSH1 0xFC SHL PUSH1 0x64 DUP3 ADD MSTORE PUSH1 0x84 ADD JUMPDEST PUSH1 0x40 MLOAD DUP1 SWAP2 SUB SWAP1 REVERT JUMPDEST PUSH0 PUSH2 0x5FA DUP4 PUSH8 0xDE0B6B3A7640000 PUSH2 0x1936 JUMP JUMPDEST SWAP1 POP PUSH0 PUSH2 0x60C PUSH1 0x2 PUSH4 0x3B9ACA00 PUSH2 0x1961 JUMP JUMPDEST SWAP1 POP PUSH0 DUP2 PUSH4 0x3B9ACA00 PUSH2 0x61E PUSH1 0x2 SLOAD SWAP1 JUMP JUMPDEST PUSH2 0x628 SWAP2 SWAP1 PUSH2 0x1936 JUMP JUMPDEST PUSH2 0x637 SWAP1 PUSH5 0x174876E800 PUSH2 0x1980 JUMP JUMPDEST PUSH2 0x641 SWAP2 SWAP1 PUSH2 0x1993 JUMP JUMPDEST SWAP1 POP DUP3 PUSH0 DUP2 PUSH2 0x651 DUP6 PUSH1 0x4 PUSH2 0x1936 JUMP JUMPDEST PUSH2 0x65B SWAP2 SWAP1 PUSH2 0x1936 JUMP JUMPDEST PUSH2 0x665 DUP5 DUP1 PUSH2 0x1936 JUMP JUMPDEST PUSH2 0x66F SWAP2 SWAP1 PUSH2 0x1980 JUMP JUMPDEST SWAP1 POP PUSH0 PUSH2 0x67B DUP3 PUSH2 0xF4A JUMP JUMPDEST SWAP1 POP PUSH4 0x3B9ACA00 PUSH2 0x68C DUP6 DUP4 PUSH2 0x1993 JUMP JUMPDEST PUSH2 0x696 SWAP2 SWAP1 PUSH2 0x1961 JUMP JUMPDEST SWAP9 SWAP8 POP POP POP POP POP POP POP POP JUMP JUMPDEST PUSH1 0x60 PUSH1 0x3 DUP1 SLOAD PUSH2 0x6B1 SWAP1 PUSH2 0x19A6 JUMP JUMPDEST DUP1 PUSH1 0x1F ADD PUSH1 0x20 DUP1 SWAP2 DIV MUL PUSH1 0x20 ADD PUSH1 0x40 MLOAD SWAP1 DUP2 ADD PUSH1 0x40 MSTORE DUP1 SWAP3 SWAP2 SWAP1 DUP2 DUP2 MSTORE PUSH1 0x20 ADD DUP3 DUP1 SLOAD PUSH2 0x6DD SWAP1 PUSH2 0x19A6 JUMP JUMPDEST DUP1 ISZERO PUSH2 0x728 JUMPI DUP1 PUSH1 0x1F LT PUSH2 0x6FF JUMPI PUSH2 0x100 DUP1 DUP4 SLOAD DIV MUL DUP4 MSTORE SWAP2 PUSH1 0x20 ADD SWAP2 PUSH2 0x728 JUMP JUMPDEST DUP3 ADD SWAP2 SWAP1 PUSH0 MSTORE PUSH1 0x20 PUSH0 KECCAK256 SWAP1 JUMPDEST DUP2 SLOAD DUP2 MSTORE SWAP1 PUSH1 0x1 ADD SWAP1 PUSH1 0x20 ADD DUP1 DUP4 GT PUSH2 0x70B JUMPI DUP3 SWAP1 SUB PUSH1 0x1F AND DUP3 ADD SWAP2 JUMPDEST POP POP POP POP POP SWAP1 POP SWAP1 JUMP JUMPDEST PUSH0 CALLER PUSH2 0x73F DUP2 DUP6 DUP6 PUSH2 0x10A2 JUMP JUMPDEST PUSH1 0x1 SWAP2 POP POP JUMPDEST SWAP3 SWAP2 POP POP JUMP JUMPDEST PUSH0 CALLER PUSH2 0x758 DUP6 DUP3 DUP6 PUSH2 0x10B4 JUMP JUMPDEST PUSH2 0x763 DUP6 DUP6 DUP6 PUSH2 0x1130 JUMP JUMPDEST POP PUSH1 0x1 SWAP5 SWAP4 POP POP POP POP JUMP JUMPDEST PUSH2 0x776 PUSH2 0x118D JUMP JUMPDEST PUSH2 0x77F PUSH0 PUSH2 0x11BA JUMP JUMPDEST JUMP JUMPDEST PUSH0 PUSH8 0xDE0B6B3A7640000 PUSH2 0x794 PUSH1 0x2 SLOAD SWAP1 JUMP JUMPDEST PUSH2 0x79C PUSH2 0xC67 JUMP JUMPDEST PUSH2 0x7A6 SWAP2 SWAP1 PUSH2 0x1936 JUMP JUMPDEST PUSH2 0x7B0 SWAP2 SWAP1 PUSH2 0x1961 JUMP JUMPDEST SWAP1 POP SWAP1 JUMP JUMPDEST PUSH1 0x60 PUSH1 0x4 DUP1 SLOAD PUSH2 0x6B1 SWAP1 PUSH2 0x19A6 JUMP JUMPDEST PUSH0 CALLER PUSH2 0x73F DUP2 DUP6 DUP6 PUSH2 0x1130 JUMP JUMPDEST PUSH2 0x7D9 PUSH2 0x118D JUMP JUMPDEST PUSH2 0x7E1 PUSH2 0x120B JUMP JUMPDEST PUSH2 0x80E PUSH32 0x0 PUSH3 0x278D00 PUSH2 0x1980 JUMP JUMPDEST TIMESTAMP GT PUSH2 0x85C JUMPI PUSH1 0x40 MLOAD PUSH3 0x461BCD PUSH1 0xE5 SHL DUP2 MSTORE PUSH1 0x20 PUSH1 0x4 DUP3 ADD MSTORE PUSH1 0x1A PUSH1 0x24 DUP3 ADD MSTORE PUSH32 0x546F6F206561726C7920746F207265636F7665722066756E6473000000000000 PUSH1 0x44 DUP3 ADD MSTORE PUSH1 0x64 ADD PUSH2 0x5DE JUMP JUMPDEST PUSH1 0x7 SLOAD PUSH1 0xFF AND ISZERO PUSH2 0x8AF JUMPI PUSH1 0x40 MLOAD PUSH3 0x461BCD PUSH1 0xE5 SHL DUP2 MSTORE PUSH1 0x20 PUSH1 0x4 DUP3 ADD MSTORE PUSH1 0x17 PUSH1 0x24 DUP3 ADD MSTORE PUSH32 0x416C7265616479206D6967726174656420746F20444558000000000000000000 PUSH1 0x44 DUP3 ADD MSTORE PUSH1 0x64 ADD PUSH2 0x5DE JUMP JUMPDEST ADDRESS PUSH0 SWAP1 DUP2 MSTORE PUSH1 0x20 DUP2 SWAP1 MSTORE PUSH1 0x40 SWAP1 KECCAK256 SLOAD SELFBALANCE SWAP1 DUP2 ISZERO PUSH2 0x8E1 JUMPI PUSH2 0x8E1 PUSH2 0x8DB PUSH1 0x5 SLOAD PUSH1 0x1 PUSH1 0x1 PUSH1 0xA0 SHL SUB AND SWAP1 JUMP JUMPDEST DUP4 PUSH2 0x1264 JUMP JUMPDEST DUP1 ISZERO PUSH2 0x903 JUMPI PUSH2 0x903 ADDRESS PUSH2 0x8FD PUSH1 0x5 SLOAD PUSH1 0x1 PUSH1 0x1 PUSH1 0xA0 SHL SUB AND SWAP1 JUMP JUMPDEST DUP4 PUSH2 0x1130 JUMP JUMPDEST PUSH1 0x5 SLOAD PUSH1 0x40 DUP1 MLOAD DUP5 DUP2 MSTORE PUSH1 0x20 DUP2 ADD DUP5 SWAP1 MSTORE PUSH1 0x1 PUSH1 0x1 PUSH1 0xA0 SHL SUB SWAP1 SWAP3 AND SWAP2 PUSH32 0x44996F6CC3FF7974D5F806D35D5A1D7FB9A281D032EE4A8A2DCC25A7CB646B69 SWAP2 ADD PUSH1 0x40 MLOAD DUP1 SWAP2 SUB SWAP1 LOG2 POP POP PUSH2 0x77F PUSH1 0x1 PUSH1 0x6 SSTORE JUMP JUMPDEST PUSH2 0x95F PUSH2 0x120B JUMP JUMPDEST PUSH1 0x7 SLOAD PUSH1 0xFF AND ISZERO PUSH2 0x9AE JUMPI PUSH1 0x40 MLOAD PUSH3 0x461BCD PUSH1 0xE5 SHL DUP2 MSTORE PUSH1 0x20 PUSH1 0x4 DUP3 ADD MSTORE PUSH1 0x19 PUSH1 0x24 DUP3 ADD MSTORE PUSH25 0xA8E4C2C8D2DCCE40D2E640DCDEEE40DEDC40E8D0CA40888AB PUSH1 0x3B SHL PUSH1 0x44 DUP3 ADD MSTORE PUSH1 0x64 ADD PUSH2 0x5DE JUMP JUMPDEST PUSH0 DUP3 GT PUSH2 0x9CD JUMPI PUSH1 0x40 MLOAD PUSH3 0x461BCD PUSH1 0xE5 SHL DUP2 MSTORE PUSH1 0x4 ADD PUSH2 0x5DE SWAP1 PUSH2 0x19DE JUMP JUMPDEST CALLER PUSH0 SWAP1 DUP2 MSTORE PUSH1 0x20 DUP2 SWAP1 MSTORE PUSH1 0x40 SWAP1 KECCAK256 SLOAD DUP3 GT ISZERO PUSH2 0xA2B JUMPI PUSH1 0x40 MLOAD PUSH3 0x461BCD PUSH1 0xE5 SHL DUP2 MSTORE PUSH1 0x20 PUSH1 0x4 DUP3 ADD MSTORE PUSH1 0x1A PUSH1 0x24 DUP3 ADD MSTORE PUSH32 0x496E73756666696369656E7420746F6B656E2062616C616E6365000000000000 PUSH1 0x44 DUP3 ADD MSTORE PUSH1 0x64 ADD PUSH2 0x5DE JUMP JUMPDEST PUSH0 PUSH2 0xA35 DUP4 PUSH2 0xC8F JUMP JUMPDEST SWAP1 POP DUP2 DUP2 LT ISZERO PUSH2 0xA87 JUMPI PUSH1 0x40 MLOAD PUSH3 0x461BCD PUSH1 0xE5 SHL DUP2 MSTORE PUSH1 0x20 PUSH1 0x4 DUP3 ADD MSTORE PUSH1 0x18 PUSH1 0x24 DUP3 ADD MSTORE PUSH32 0x536C6970706167653A20746F6F206C6974746C65204554480000000000000000 PUSH1 0x44 DUP3 ADD MSTORE PUSH1 0x64 ADD PUSH2 0x5DE JUMP JUMPDEST PUSH2 0xA91 CALLER DUP5 PUSH2 0x12F0 JUMP JUMPDEST PUSH2 0xA9B CALLER DUP3 PUSH2 0x1264 JUMP JUMPDEST PUSH1 0x40 DUP1 MLOAD DUP5 DUP2 MSTORE PUSH1 0x20 DUP2 ADD DUP4 SWAP1 MSTORE CALLER SWAP2 PUSH32 0xBAC9694AC0DAA55169ABD117086FE32C89401D9A3B15DD1D34E55E0AA4E47A9D SWAP2 ADD PUSH1 0x40 MLOAD DUP1 SWAP2 SUB SWAP1 LOG2 POP PUSH2 0xAE1 PUSH1 0x1 PUSH1 0x6 SSTORE JUMP JUMPDEST POP POP JUMP JUMPDEST PUSH2 0xAED PUSH2 0x120B JUMP JUMPDEST PUSH1 0x7 SLOAD PUSH1 0xFF AND ISZERO PUSH2 0xB3C JUMPI PUSH1 0x40 MLOAD PUSH3 0x461BCD PUSH1 0xE5 SHL DUP2 MSTORE PUSH1 0x20 PUSH1 0x4 DUP3 ADD MSTORE PUSH1 0x19 PUSH1 0x24 DUP3 ADD MSTORE PUSH25 0xA8E4C2C8D2DCCE40D2E640DCDEEE40DEDC40E8D0CA40888AB PUSH1 0x3B SHL PUSH1 0x44 DUP3 ADD MSTORE PUSH1 0x64 ADD PUSH2 0x5DE JUMP JUMPDEST PUSH0 CALLVALUE GT PUSH2 0xB82 JUMPI PUSH1 0x40 MLOAD PUSH3 0x461BCD PUSH1 0xE5 SHL DUP2 MSTORE PUSH1 0x20 PUSH1 0x4 DUP3 ADD MSTORE PUSH1 0x14 PUSH1 0x24 DUP3 ADD MSTORE PUSH20 0x4D7573742073656E642045544820746F20627579 PUSH1 0x60 SHL PUSH1 0x44 DUP3 ADD MSTORE PUSH1 0x64 ADD PUSH2 0x5DE JUMP JUMPDEST PUSH0 PUSH2 0xB8C CALLVALUE PUSH2 0x588 JUMP JUMPDEST SWAP1 POP DUP2 DUP2 LT ISZERO PUSH2 0xBDE JUMPI PUSH1 0x40 MLOAD PUSH3 0x461BCD PUSH1 0xE5 SHL DUP2 MSTORE PUSH1 0x20 PUSH1 0x4 DUP3 ADD MSTORE PUSH1 0x18 PUSH1 0x24 DUP3 ADD MSTORE PUSH32 0x536C6970706167653A20746F6F2066657720746F6B656E730000000000000000 PUSH1 0x44 DUP3 ADD MSTORE PUSH1 0x64 ADD PUSH2 0x5DE JUMP JUMPDEST PUSH2 0xBE8 CALLER DUP3 PUSH2 0x1324 JUMP JUMPDEST PUSH1 0x40 DUP1 MLOAD CALLVALUE DUP2 MSTORE PUSH1 0x20 DUP2 ADD DUP4 SWAP1 MSTORE CALLER SWAP2 PUSH32 0xA9A40DEC7A304E5915D11358B968C1E8D365992ABF20F82285D1DF1B30C8E24C SWAP2 ADD PUSH1 0x40 MLOAD DUP1 SWAP2 SUB SWAP1 LOG2 PUSH32 0x0 PUSH2 0xC4C PUSH2 0x781 JUMP JUMPDEST LT PUSH2 0xC59 JUMPI PUSH2 0xC59 PUSH2 0x1358 JUMP JUMPDEST POP PUSH2 0xC64 PUSH1 0x1 PUSH1 0x6 SSTORE JUMP JUMPDEST POP JUMP JUMPDEST PUSH0 PUSH4 0x3B9ACA00 PUSH2 0xC76 PUSH1 0x2 SLOAD SWAP1 JUMP JUMPDEST PUSH2 0xC80 SWAP2 SWAP1 PUSH2 0x1936 JUMP JUMPDEST PUSH2 0x7B0 SWAP1 PUSH5 0x174876E800 PUSH2 0x1980 JUMP JUMPDEST PUSH0 DUP1 DUP3 GT PUSH2 0xCAF JUMPI PUSH1 0x40 MLOAD PUSH3 0x461BCD PUSH1 0xE5 SHL DUP2 MSTORE PUSH1 0x4 ADD PUSH2 0x5DE SWAP1 PUSH2 0x19DE JUMP JUMPDEST DUP2 PUSH2 0xCB9 PUSH1 0x2 SLOAD SWAP1 JUMP JUMPDEST LT ISZERO PUSH2 0xD12 JUMPI PUSH1 0x40 MLOAD PUSH3 0x461BCD PUSH1 0xE5 SHL DUP2 MSTORE PUSH1 0x20 PUSH1 0x4 DUP3 ADD MSTORE PUSH1 0x22 PUSH1 0x24 DUP3 ADD MSTORE PUSH32 0x43616E6E6F742073656C6C206D6F7265207468616E20746F74616C2073757070 PUSH1 0x44 DUP3 ADD MSTORE PUSH2 0x6C79 PUSH1 0xF0 SHL PUSH1 0x64 DUP3 ADD MSTORE PUSH1 0x84 ADD PUSH2 0x5DE JUMP JUMPDEST PUSH0 PUSH2 0xD1C PUSH1 0x2 SLOAD SWAP1 JUMP JUMPDEST SWAP1 POP PUSH0 PUSH2 0xD2D PUSH4 0x3B9ACA00 DUP4 PUSH2 0x1936 JUMP JUMPDEST PUSH2 0xD3C SWAP1 PUSH5 0x174876E800 PUSH2 0x1980 JUMP JUMPDEST SWAP1 POP PUSH0 PUSH2 0xD4D PUSH4 0x3B9ACA00 DUP7 PUSH2 0x1936 JUMP JUMPDEST PUSH2 0xD57 SWAP1 DUP4 PUSH2 0x1993 JUMP JUMPDEST SWAP1 POP PUSH8 0xDE0B6B3A7640000 DUP6 PUSH1 0x2 PUSH2 0xD6F DUP6 DUP6 PUSH2 0x1980 JUMP JUMPDEST PUSH2 0xD79 SWAP2 SWAP1 PUSH2 0x1961 JUMP JUMPDEST PUSH2 0xD83 SWAP2 SWAP1 PUSH2 0x1936 JUMP JUMPDEST PUSH2 0xD8D SWAP2 SWAP1 PUSH2 0x1961 JUMP JUMPDEST SWAP6 SWAP5 POP POP POP POP POP JUMP JUMPDEST PUSH2 0xD9E PUSH2 0x118D JUMP JUMPDEST PUSH1 0x1 PUSH1 0x1 PUSH1 0xA0 SHL SUB DUP2 AND PUSH2 0xDC7 JUMPI PUSH1 0x40 MLOAD PUSH4 0x1E4FBDF7 PUSH1 0xE0 SHL DUP2 MSTORE PUSH0 PUSH1 0x4 DUP3 ADD MSTORE PUSH1 0x24 ADD PUSH2 0x5DE JUMP JUMPDEST PUSH2 0xC64 DUP2 PUSH2 0x11BA JUMP JUMPDEST PUSH0 DUP1 DUP3 GT PUSH2 0xDF0 JUMPI PUSH1 0x40 MLOAD PUSH3 0x461BCD PUSH1 0xE5 SHL DUP2 MSTORE PUSH1 0x4 ADD PUSH2 0x5DE SWAP1 PUSH2 0x19DE JUMP JUMPDEST PUSH0 PUSH2 0xDFA PUSH1 0x2 SLOAD SWAP1 JUMP JUMPDEST SWAP1 POP PUSH0 PUSH2 0xE0B PUSH4 0x3B9ACA00 DUP4 PUSH2 0x1936 JUMP JUMPDEST PUSH2 0xE1A SWAP1 PUSH5 0x174876E800 PUSH2 0x1980 JUMP JUMPDEST SWAP1 POP PUSH0 PUSH2 0xE2B PUSH4 0x3B9ACA00 DUP7 PUSH2 0x1936 JUMP JUMPDEST PUSH2 0xE35 SWAP1 DUP4 PUSH2 0x1980 JUMP JUMPDEST SWAP1 POP PUSH8 0xDE0B6B3A7640000 DUP6 PUSH1 0x2 PUSH2 0xD6F DUP5 DUP7 PUSH2 0x1980 JUMP JUMPDEST PUSH1 0x60 DUP1 PUSH0 DUP1 PUSH0 DUP1 ADDRESS PUSH1 0x1 PUSH1 0x1 PUSH1 0xA0 SHL SUB AND PUSH4 0x6FDDE03 PUSH1 0x40 MLOAD DUP2 PUSH4 0xFFFFFFFF AND PUSH1 0xE0 SHL DUP2 MSTORE PUSH1 0x4 ADD PUSH0 PUSH1 0x40 MLOAD DUP1 DUP4 SUB DUP2 DUP7 GAS STATICCALL ISZERO DUP1 ISZERO PUSH2 0xE8F JUMPI RETURNDATASIZE PUSH0 DUP1 RETURNDATACOPY RETURNDATASIZE PUSH0 REVERT JUMPDEST POP POP POP POP PUSH1 0x40 MLOAD RETURNDATASIZE PUSH0 DUP3 RETURNDATACOPY PUSH1 0x1F RETURNDATASIZE SWAP1 DUP2 ADD PUSH1 0x1F NOT AND DUP3 ADD PUSH1 0x40 MSTORE PUSH2 0xEB6 SWAP2 SWAP1 DUP2 ADD SWAP1 PUSH2 0x1A35 JUMP JUMPDEST ADDRESS PUSH1 0x1 PUSH1 0x1 PUSH1 0xA0 SHL SUB AND PUSH4 0x95D89B41 PUSH1 0x40 MLOAD DUP2 PUSH4 0xFFFFFFFF AND PUSH1 0xE0 SHL DUP2 MSTORE PUSH1 0x4 ADD PUSH0 PUSH1 0x40 MLOAD DUP1 DUP4 SUB DUP2 DUP7 GAS STATICCALL ISZERO DUP1 ISZERO PUSH2 0xEF1 JUMPI RETURNDATASIZE PUSH0 DUP1 RETURNDATACOPY RETURNDATASIZE PUSH0 REVERT JUMPDEST POP POP POP POP PUSH1 0x40 MLOAD RETURNDATASIZE PUSH0 DUP3 RETURNDATACOPY PUSH1 0x1F RETURNDATASIZE SWAP1 DUP2 ADD PUSH1 0x1F NOT AND DUP3 ADD PUSH1 0x40 MSTORE PUSH2 0xF18 SWAP2 SWAP1 DUP2 ADD SWAP1 PUSH2 0x1A35 JUMP JUMPDEST PUSH2 0xF20 PUSH2 0xC67 JUMP JUMPDEST PUSH2 0xF28 PUSH2 0x781 JUMP JUMPDEST PUSH1 0x7 SLOAD PUSH1 0xFF AND PUSH2 0xF37 PUSH1 0x2 SLOAD SWAP1 JUMP JUMPDEST SWAP5 SWAP12 SWAP4 SWAP11 POP SWAP2 SWAP9 POP SWAP7 POP SWAP5 POP SWAP1 SWAP3 POP SWAP1 POP JUMP JUMPDEST PUSH0 PUSH1 0x1 DUP3 GT PUSH2 0xF57 JUMPI POP SWAP1 JUMP JUMPDEST DUP2 PUSH1 0x1 PUSH1 0x1 PUSH1 0x80 SHL DUP3 LT PUSH2 0xF70 JUMPI PUSH1 0x80 SWAP2 SWAP1 SWAP2 SHR SWAP1 PUSH1 0x40 SHL JUMPDEST PUSH9 0x10000000000000000 DUP3 LT PUSH2 0xF8B JUMPI PUSH1 0x40 SWAP2 SWAP1 SWAP2 SHR SWAP1 PUSH1 0x20 SHL JUMPDEST PUSH5 0x100000000 DUP3 LT PUSH2 0xFA2 JUMPI PUSH1 0x20 SWAP2 SWAP1 SWAP2 SHR SWAP1 PUSH1 0x10 SHL JUMPDEST PUSH3 0x10000 DUP3 LT PUSH2 0xFB7 JUMPI PUSH1 0x10 SWAP2 SWAP1 SWAP2 SHR SWAP1 PUSH1 0x8 SHL JUMPDEST PUSH2 0x100 DUP3 LT PUSH2 0xFCB JUMPI PUSH1 0x8 SWAP2 SWAP1 SWAP2 SHR SWAP1 PUSH1 0x4 SHL JUMPDEST PUSH1 0x10 DUP3 LT PUSH2 0xFDE JUMPI PUSH1 0x4 SWAP2 SWAP1 SWAP2 SHR SWAP1 PUSH1 0x2 SHL JUMPDEST PUSH1 0x4 DUP3 LT PUSH2 0xFEA JUMPI PUSH1 0x1 SHL JUMPDEST PUSH1 0x3 MUL PUSH1 0x1 SWAP1 DUP2 SHR SWAP1 DUP2 DUP6 DUP2 PUSH2 0x1002 JUMPI PUSH2 0x1002 PUSH2 0x194D JUMP JUMPDEST DIV DUP3 ADD SWAP1 SHR SWAP1 POP PUSH1 0x1 DUP2 DUP6 DUP2 PUSH2 0x101A JUMPI PUSH2 0x101A PUSH2 0x194D JUMP JUMPDEST DIV DUP3 ADD SWAP1 SHR SWAP1 POP PUSH1 0x1 DUP2 DUP6 DUP2 PUSH2 0x1032 JUMPI PUSH2 0x1032 PUSH2 0x194D JUMP JUMPDEST DIV DUP3 ADD SWAP1 SHR SWAP1 POP PUSH1 0x1 DUP2 DUP6 DUP2 PUSH2 0x104A JUMPI PUSH2 0x104A PUSH2 0x194D JUMP JUMPDEST DIV DUP3 ADD SWAP1 SHR SWAP1 POP PUSH1 0x1 DUP2 DUP6 DUP2 PUSH2 0x1062 JUMPI PUSH2 0x1062 PUSH2 0x194D JUMP JUMPDEST DIV DUP3 ADD SWAP1 SHR SWAP1 POP PUSH1 0x1 DUP2 DUP6 DUP2 PUSH2 0x107A JUMPI PUSH2 0x107A PUSH2 0x194D JUMP JUMPDEST DIV DUP3 ADD SWAP1 SHR SWAP1 POP PUSH2 0x1099 DUP2 DUP6 DUP2 PUSH2 0x1093 JUMPI PUSH2 0x1093 PUSH2 0x194D JUMP JUMPDEST DIV DUP3 GT SWAP1 JUMP JUMPDEST SWAP1 SUB SWAP4 SWAP3 POP POP POP JUMP JUMPDEST PUSH2 0x10AF DUP4 DUP4 DUP4 PUSH1 0x1 PUSH2 0x1554 JUMP JUMPDEST POP POP POP JUMP JUMPDEST PUSH1 0x1 PUSH1 0x1 PUSH1 0xA0 SHL SUB DUP4 DUP2 AND PUSH0 SWAP1 DUP2 MSTORE PUSH1 0x1 PUSH1 0x20 SWAP1 DUP2 MSTORE PUSH1 0x40 DUP1 DUP4 KECCAK256 SWAP4 DUP7 AND DUP4 MSTORE SWAP3 SWAP1 MSTORE KECCAK256 SLOAD PUSH0 NOT DUP2 LT ISZERO PUSH2 0x112A JUMPI DUP2 DUP2 LT ISZERO PUSH2 0x111C JUMPI PUSH1 0x40 MLOAD PUSH4 0x7DC7A0D9 PUSH1 0xE1 SHL DUP2 MSTORE PUSH1 0x1 PUSH1 0x1 PUSH1 0xA0 SHL SUB DUP5 AND PUSH1 0x4 DUP3 ADD MSTORE PUSH1 0x24 DUP2 ADD DUP3 SWAP1 MSTORE PUSH1 0x44 DUP2 ADD DUP4 SWAP1 MSTORE PUSH1 0x64 ADD PUSH2 0x5DE JUMP JUMPDEST PUSH2 0x112A DUP5 DUP5 DUP5 DUP5 SUB PUSH0 PUSH2 0x1554 JUMP JUMPDEST POP POP POP POP JUMP JUMPDEST PUSH1 0x1 PUSH1 0x1 PUSH1 0xA0 SHL SUB DUP4 AND PUSH2 0x1159 JUMPI PUSH1 0x40 MLOAD PUSH4 0x4B637E8F PUSH1 0xE1 SHL DUP2 MSTORE PUSH0 PUSH1 0x4 DUP3 ADD MSTORE PUSH1 0x24 ADD PUSH2 0x5DE JUMP JUMPDEST PUSH1 0x1 PUSH1 0x1 PUSH1 0xA0 SHL SUB DUP3 AND PUSH2 0x1182 JUMPI PUSH1 0x40 MLOAD PUSH4 0xEC442F05 PUSH1 0xE0 SHL DUP2 MSTORE PUSH0 PUSH1 0x4 DUP3 ADD MSTORE PUSH1 0x24 ADD PUSH2 0x5DE JUMP JUMPDEST PUSH2 0x10AF DUP4 DUP4 DUP4 PUSH2 0x1626 JUMP JUMPDEST PUSH1 0x5 SLOAD PUSH1 0x1 PUSH1 0x1 PUSH1 0xA0 SHL SUB AND CALLER EQ PUSH2 0x77F JUMPI PUSH1 0x40 MLOAD PUSH4 0x118CDAA7 PUSH1 0xE0 SHL DUP2 MSTORE CALLER PUSH1 0x4 DUP3 ADD MSTORE PUSH1 0x24 ADD PUSH2 0x5DE JUMP JUMPDEST PUSH1 0x5 DUP1 SLOAD PUSH1 0x1 PUSH1 0x1 PUSH1 0xA0 SHL SUB DUP4 DUP2 AND PUSH1 0x1 PUSH1 0x1 PUSH1 0xA0 SHL SUB NOT DUP4 AND DUP2 OR SWAP1 SWAP4 SSTORE PUSH1 0x40 MLOAD SWAP2 AND SWAP2 SWAP1 DUP3 SWAP1 PUSH32 0x8BE0079C531659141344CD1FD0A4F28419497F9722A3DAAFE3B4186F6B6457E0 SWAP1 PUSH0 SWAP1 LOG3 POP POP JUMP JUMPDEST PUSH1 0x2 PUSH1 0x6 SLOAD SUB PUSH2 0x125D JUMPI PUSH1 0x40 MLOAD PUSH3 0x461BCD PUSH1 0xE5 SHL DUP2 MSTORE PUSH1 0x20 PUSH1 0x4 DUP3 ADD MSTORE PUSH1 0x1F PUSH1 0x24 DUP3 ADD MSTORE PUSH32 0x5265656E7472616E637947756172643A207265656E7472616E742063616C6C00 PUSH1 0x44 DUP3 ADD MSTORE PUSH1 0x64 ADD PUSH2 0x5DE JUMP JUMPDEST PUSH1 0x2 PUSH1 0x6 SSTORE JUMP JUMPDEST DUP1 SELFBALANCE LT ISZERO PUSH2 0x128E JUMPI PUSH1 0x40 MLOAD PUSH4 0xCF479181 PUSH1 0xE0 SHL DUP2 MSTORE SELFBALANCE PUSH1 0x4 DUP3 ADD MSTORE PUSH1 0x24 DUP2 ADD DUP3 SWAP1 MSTORE PUSH1 0x44 ADD PUSH2 0x5DE JUMP JUMPDEST PUSH0 DUP1 DUP4 PUSH1 0x1 PUSH1 0x1 PUSH1 0xA0 SHL SUB AND DUP4 PUSH1 0x40 MLOAD PUSH0 PUSH1 0x40 MLOAD DUP1 DUP4 SUB DUP2 DUP6 DUP8 GAS CALL SWAP3 POP POP POP RETURNDATASIZE DUP1 PUSH0 DUP2 EQ PUSH2 0x12D8 JUMPI PUSH1 0x40 MLOAD SWAP2 POP PUSH1 0x1F NOT PUSH1 0x3F RETURNDATASIZE ADD AND DUP3 ADD PUSH1 0x40 MSTORE RETURNDATASIZE DUP3 MSTORE RETURNDATASIZE PUSH0 PUSH1 0x20 DUP5 ADD RETURNDATACOPY PUSH2 0x12DD JUMP JUMPDEST PUSH1 0x60 SWAP2 POP JUMPDEST POP SWAP2 POP SWAP2 POP DUP2 PUSH2 0x112A JUMPI PUSH2 0x112A DUP2 PUSH2 0x174C JUMP JUMPDEST PUSH1 0x1 PUSH1 0x1 PUSH1 0xA0 SHL SUB DUP3 AND PUSH2 0x1319 JUMPI PUSH1 0x40 MLOAD PUSH4 0x4B637E8F PUSH1 0xE1 SHL DUP2 MSTORE PUSH0 PUSH1 0x4 DUP3 ADD MSTORE PUSH1 0x24 ADD PUSH2 0x5DE JUMP JUMPDEST PUSH2 0xAE1 DUP3 PUSH0 DUP4 PUSH2 0x1626 JUMP JUMPDEST PUSH1 0x1 PUSH1 0x1 PUSH1 0xA0 SHL SUB DUP3 AND PUSH2 0x134D JUMPI PUSH1 0x40 MLOAD PUSH4 0xEC442F05 PUSH1 0xE0 SHL DUP2 MSTORE PUSH0 PUSH1 0x4 DUP3 ADD MSTORE PUSH1 0x24 ADD PUSH2 0x5DE JUMP JUMPDEST PUSH2 0xAE1 PUSH0 DUP4 DUP4 PUSH2 0x1626 JUMP JUMPDEST PUSH1 0x7 DUP1 SLOAD PUSH1 0xFF NOT AND PUSH1 0x1 OR SWAP1 SSTORE SELFBALANCE PUSH0 PUSH2 0x1370 PUSH1 0x2 SLOAD SWAP1 JUMP JUMPDEST SWAP1 POP PUSH0 DUP3 GT DUP1 ISZERO PUSH2 0x1380 JUMPI POP PUSH0 DUP2 GT JUMPDEST PUSH2 0x13D7 JUMPI PUSH1 0x40 MLOAD PUSH3 0x461BCD PUSH1 0xE5 SHL DUP2 MSTORE PUSH1 0x20 PUSH1 0x4 DUP3 ADD MSTORE PUSH1 0x22 PUSH1 0x24 DUP3 ADD MSTORE PUSH32 0x496E73756666696369656E742062616C616E636520666F72206D696772617469 PUSH1 0x44 DUP3 ADD MSTORE PUSH2 0x37B7 PUSH1 0xF1 SHL PUSH1 0x64 DUP3 ADD MSTORE PUSH1 0x84 ADD PUSH2 0x5DE JUMP JUMPDEST PUSH2 0x1402 ADDRESS PUSH32 0x0 DUP4 PUSH2 0x10A2 JUMP JUMPDEST PUSH0 PUSH1 0x64 PUSH2 0x1410 DUP4 PUSH1 0x63 PUSH2 0x1936 JUMP JUMPDEST PUSH2 0x141A SWAP2 SWAP1 PUSH2 0x1961 JUMP JUMPDEST SWAP1 POP PUSH0 PUSH1 0x64 PUSH2 0x142A DUP6 PUSH1 0x63 PUSH2 0x1936 JUMP JUMPDEST PUSH2 0x1434 SWAP2 SWAP1 PUSH2 0x1961 JUMP JUMPDEST PUSH1 0x40 MLOAD PUSH4 0xF305D719 PUSH1 0xE0 SHL DUP2 MSTORE ADDRESS PUSH1 0x4 DUP3 ADD MSTORE PUSH1 0x24 DUP2 ADD DUP6 SWAP1 MSTORE PUSH1 0x44 DUP2 ADD DUP5 SWAP1 MSTORE PUSH1 0x64 DUP2 ADD DUP3 SWAP1 MSTORE PUSH1 0x1 PUSH1 0x1 PUSH1 0xA0 SHL SUB PUSH32 0x0 DUP2 AND PUSH1 0x84 DUP4 ADD MSTORE TIMESTAMP PUSH1 0xA4 DUP4 ADD MSTORE SWAP2 SWAP3 POP PUSH0 SWAP2 DUP3 SWAP2 PUSH32 0x0 SWAP1 SWAP2 AND SWAP1 PUSH4 0xF305D719 SWAP1 DUP9 SWAP1 PUSH1 0xC4 ADD PUSH1 0x60 PUSH1 0x40 MLOAD DUP1 DUP4 SUB DUP2 DUP6 DUP9 GAS CALL ISZERO DUP1 ISZERO PUSH2 0x14E5 JUMPI RETURNDATASIZE PUSH0 DUP1 RETURNDATACOPY RETURNDATASIZE PUSH0 REVERT JUMPDEST POP POP POP POP POP PUSH1 0x40 MLOAD RETURNDATASIZE PUSH1 0x1F NOT PUSH1 0x1F DUP3 ADD AND DUP3 ADD DUP1 PUSH1 0x40 MSTORE POP DUP2 ADD SWAP1 PUSH2 0x150A SWAP2 SWAP1 PUSH2 0x1ADD JUMP JUMPDEST POP PUSH1 0x40 DUP1 MLOAD DUP3 DUP2 MSTORE PUSH1 0x20 DUP2 ADD DUP5 SWAP1 MSTORE SWAP3 SWAP5 POP SWAP1 SWAP3 POP ADDRESS SWAP2 PUSH32 0x75D484D07A3A943757ED13DB85D08F5FB50EED417EF8F7B237E6B0D8BF5E8D3E SWAP2 ADD PUSH1 0x40 MLOAD DUP1 SWAP2 SUB SWAP1 LOG2 POP POP POP POP POP POP JUMP JUMPDEST PUSH1 0x1 PUSH1 0x1 PUSH1 0xA0 SHL SUB DUP5 AND PUSH2 0x157D JUMPI PUSH1 0x40 MLOAD PUSH4 0xE602DF05 PUSH1 0xE0 SHL DUP2 MSTORE PUSH0 PUSH1 0x4 DUP3 ADD MSTORE PUSH1 0x24 ADD PUSH2 0x5DE JUMP JUMPDEST PUSH1 0x1 PUSH1 0x1 PUSH1 0xA0 SHL SUB DUP4 AND PUSH2 0x15A6 JUMPI PUSH1 0x40 MLOAD PUSH4 0x4A1406B1 PUSH1 0xE1 SHL DUP2 MSTORE PUSH0 PUSH1 0x4 DUP3 ADD MSTORE PUSH1 0x24 ADD PUSH2 0x5DE JUMP JUMPDEST PUSH1 0x1 PUSH1 0x1 PUSH1 0xA0 SHL SUB DUP1 DUP6 AND PUSH0 SWAP1 DUP2 MSTORE PUSH1 0x1 PUSH1 0x20 SWAP1 DUP2 MSTORE PUSH1 0x40 DUP1 DUP4 KECCAK256 SWAP4 DUP8 AND DUP4 MSTORE SWAP3 SWAP1 MSTORE KECCAK256 DUP3 SWAP1 SSTORE DUP1 ISZERO PUSH2 0x112A JUMPI DUP3 PUSH1 0x1 PUSH1 0x1 PUSH1 0xA0 SHL SUB AND DUP5 PUSH1 0x1 PUSH1 0x1 PUSH1 0xA0 SHL SUB AND PUSH32 0x8C5BE1E5EBEC7D5BD14F71427D1E84F3DD0314C0F7B2291E5B200AC8C7C3B925 DUP5 PUSH1 0x40 MLOAD PUSH2 0x1618 SWAP2 DUP2 MSTORE PUSH1 0x20 ADD SWAP1 JUMP JUMPDEST PUSH1 0x40 MLOAD DUP1 SWAP2 SUB SWAP1 LOG3 POP POP POP POP JUMP JUMPDEST PUSH1 0x1 PUSH1 0x1 PUSH1 0xA0 SHL SUB DUP4 AND PUSH2 0x1650 JUMPI DUP1 PUSH1 0x2 PUSH0 DUP3 DUP3 SLOAD PUSH2 0x1645 SWAP2 SWAP1 PUSH2 0x1980 JUMP JUMPDEST SWAP1 SWAP2 SSTORE POP PUSH2 0x16C0 SWAP1 POP JUMP JUMPDEST PUSH1 0x1 PUSH1 0x1 PUSH1 0xA0 SHL SUB DUP4 AND PUSH0 SWAP1 DUP2 MSTORE PUSH1 0x20 DUP2 SWAP1 MSTORE PUSH1 0x40 SWAP1 KECCAK256 SLOAD DUP2 DUP2 LT ISZERO PUSH2 0x16A2 JUMPI PUSH1 0x40 MLOAD PUSH4 0x391434E3 PUSH1 0xE2 SHL DUP2 MSTORE PUSH1 0x1 PUSH1 0x1 PUSH1 0xA0 SHL SUB DUP6 AND PUSH1 0x4 DUP3 ADD MSTORE PUSH1 0x24 DUP2 ADD DUP3 SWAP1 MSTORE PUSH1 0x44 DUP2 ADD DUP4 SWAP1 MSTORE PUSH1 0x64 ADD PUSH2 0x5DE JUMP JUMPDEST PUSH1 0x1 PUSH1 0x1 PUSH1 0xA0 SHL SUB DUP5 AND PUSH0 SWAP1 DUP2 MSTORE PUSH1 0x20 DUP2 SWAP1 MSTORE PUSH1 0x40 SWAP1 KECCAK256 SWAP1 DUP3 SWAP1 SUB SWAP1 SSTORE JUMPDEST PUSH1 0x1 PUSH1 0x1 PUSH1 0xA0 SHL SUB DUP3 AND PUSH2 0x16DC JUMPI PUSH1 0x2 DUP1 SLOAD DUP3 SWAP1 SUB SWAP1 SSTORE PUSH2 0x16FA JUMP JUMPDEST PUSH1 0x1 PUSH1 0x1 PUSH1 0xA0 SHL SUB DUP3 AND PUSH0 SWAP1 DUP2 MSTORE PUSH1 0x20 DUP2 SWAP1 MSTORE PUSH1 0x40 SWAP1 KECCAK256 DUP1 SLOAD DUP3 ADD SWAP1 SSTORE JUMPDEST DUP2 PUSH1 0x1 PUSH1 0x1 PUSH1 0xA0 SHL SUB AND DUP4 PUSH1 0x1 PUSH1 0x1 PUSH1 0xA0 SHL SUB AND PUSH32 0xDDF252AD1BE2C89B69C2B068FC378DAA952BA7F163C4A11628F55A4DF523B3EF DUP4 PUSH1 0x40 MLOAD PUSH2 0x173F SWAP2 DUP2 MSTORE PUSH1 0x20 ADD SWAP1 JUMP JUMPDEST PUSH1 0x40 MLOAD DUP1 SWAP2 SUB SWAP1 LOG3 POP POP POP JUMP JUMPDEST DUP1 MLOAD ISZERO PUSH2 0x175C JUMPI DUP1 MLOAD DUP1 DUP3 PUSH1 0x20 ADD REVERT JUMPDEST PUSH1 0x40 MLOAD PUSH4 0xD6BDA275 PUSH1 0xE0 SHL DUP2 MSTORE PUSH1 0x4 ADD PUSH1 0x40 MLOAD DUP1 SWAP2 SUB SWAP1 REVERT JUMPDEST PUSH0 PUSH1 0x20 DUP3 DUP5 SUB SLT ISZERO PUSH2 0x1785 JUMPI PUSH0 DUP1 REVERT JUMPDEST POP CALLDATALOAD SWAP2 SWAP1 POP JUMP JUMPDEST PUSH0 JUMPDEST DUP4 DUP2 LT ISZERO PUSH2 0x17A6 JUMPI DUP2 DUP2 ADD MLOAD DUP4 DUP3 ADD MSTORE PUSH1 0x20 ADD PUSH2 0x178E JUMP JUMPDEST POP POP PUSH0 SWAP2 ADD MSTORE JUMP JUMPDEST PUSH0 DUP2 MLOAD DUP1 DUP5 MSTORE PUSH2 0x17C5 DUP2 PUSH1 0x20 DUP7 ADD PUSH1 0x20 DUP7 ADD PUSH2 0x178C JUMP JUMPDEST PUSH1 0x1F ADD PUSH1 0x1F NOT AND SWAP3 SWAP1 SWAP3 ADD PUSH1 0x20 ADD SWAP3 SWAP2 POP POP JUMP JUMPDEST PUSH1 0x20 DUP2 MSTORE PUSH0 PUSH2 0x17EB PUSH1 0x20 DUP4 ADD DUP5 PUSH2 0x17AE JUMP JUMPDEST SWAP4 SWAP3 POP POP POP JUMP JUMPDEST DUP1 CALLDATALOAD PUSH1 0x1 PUSH1 0x1 PUSH1 0xA0 SHL SUB DUP2 AND DUP2 EQ PUSH2 0x1808 JUMPI PUSH0 DUP1 REVERT JUMPDEST SWAP2 SWAP1 POP JUMP JUMPDEST PUSH0 DUP1 PUSH1 0x40 DUP4 DUP6 SUB SLT ISZERO PUSH2 0x181E JUMPI PUSH0 DUP1 REVERT JUMPDEST PUSH2 0x1827 DUP4 PUSH2 0x17F2 JUMP JUMPDEST SWAP5 PUSH1 0x20 SWAP4 SWAP1 SWAP4 ADD CALLDATALOAD SWAP4 POP POP POP JUMP JUMPDEST PUSH0 DUP1 PUSH0 PUSH1 0x60 DUP5 DUP7 SUB SLT ISZERO PUSH2 0x1847 JUMPI PUSH0 DUP1 REVERT JUMPDEST PUSH2 0x1850 DUP5 PUSH2 0x17F2 JUMP JUMPDEST SWAP3 POP PUSH2 0x185E PUSH1 0x20 DUP6 ADD PUSH2 0x17F2 JUMP JUMPDEST SWAP2 POP PUSH1 0x40 DUP5 ADD CALLDATALOAD SWAP1 POP SWAP3 POP SWAP3 POP SWAP3 JUMP JUMPDEST PUSH0 PUSH1 0x20 DUP3 DUP5 SUB SLT ISZERO PUSH2 0x187E JUMPI PUSH0 DUP1 REVERT JUMPDEST PUSH2 0x17EB DUP3 PUSH2 0x17F2 JUMP JUMPDEST PUSH0 DUP1 PUSH1 0x40 DUP4 DUP6 SUB SLT ISZERO PUSH2 0x1898 JUMPI PUSH0 DUP1 REVERT JUMPDEST POP POP DUP1 CALLDATALOAD SWAP3 PUSH1 0x20 SWAP1 SWAP2 ADD CALLDATALOAD SWAP2 POP JUMP JUMPDEST PUSH0 DUP1 PUSH1 0x40 DUP4 DUP6 SUB SLT ISZERO PUSH2 0x18B8 JUMPI PUSH0 DUP1 REVERT JUMPDEST PUSH2 0x18C1 DUP4 PUSH2 0x17F2 JUMP JUMPDEST SWAP2 POP PUSH2 0x18CF PUSH1 0x20 DUP5 ADD PUSH2 0x17F2 JUMP JUMPDEST SWAP1 POP SWAP3 POP SWAP3 SWAP1 POP JUMP JUMPDEST PUSH1 0xC0 DUP2 MSTORE PUSH0 PUSH2 0x18EA PUSH1 0xC0 DUP4 ADD DUP10 PUSH2 0x17AE JUMP JUMPDEST DUP3 DUP2 SUB PUSH1 0x20 DUP5 ADD MSTORE PUSH2 0x18FC DUP2 DUP10 PUSH2 0x17AE JUMP JUMPDEST PUSH1 0x40 DUP5 ADD SWAP8 SWAP1 SWAP8 MSTORE POP POP PUSH1 0x60 DUP2 ADD SWAP4 SWAP1 SWAP4 MSTORE SWAP1 ISZERO ISZERO PUSH1 0x80 DUP4 ADD MSTORE PUSH1 0xA0 SWAP1 SWAP2 ADD MSTORE SWAP3 SWAP2 POP POP JUMP JUMPDEST PUSH4 0x4E487B71 PUSH1 0xE0 SHL PUSH0 MSTORE PUSH1 0x11 PUSH1 0x4 MSTORE PUSH1 0x24 PUSH0 REVERT JUMPDEST DUP1 DUP3 MUL DUP2 ISZERO DUP3 DUP3 DIV DUP5 EQ OR PUSH2 0x745 JUMPI PUSH2 0x745 PUSH2 0x1922 JUMP JUMPDEST PUSH4 0x4E487B71 PUSH1 0xE0 SHL PUSH0 MSTORE PUSH1 0x12 PUSH1 0x4 MSTORE PUSH1 0x24 PUSH0 REVERT JUMPDEST PUSH0 DUP3 PUSH2 0x197B JUMPI PUSH4 0x4E487B71 PUSH1 0xE0 SHL PUSH0 MSTORE PUSH1 0x12 PUSH1 0x4 MSTORE PUSH1 0x24 PUSH0 REVERT JUMPDEST POP DIV SWAP1 JUMP JUMPDEST DUP1 DUP3 ADD DUP1 DUP3 GT ISZERO PUSH2 0x745 JUMPI PUSH2 0x745 PUSH2 0x1922 JUMP JUMPDEST DUP2 DUP2 SUB DUP2 DUP2 GT ISZERO PUSH2 0x745 JUMPI PUSH2 0x745 PUSH2 0x1922 JUMP JUMPDEST PUSH1 0x1 DUP2 DUP2 SHR SWAP1 DUP3 AND DUP1 PUSH2 0x19BA JUMPI PUSH1 0x7F DUP3 AND SWAP2 POP JUMPDEST PUSH1 0x20 DUP3 LT DUP2 SUB PUSH2 0x19D8 JUMPI PUSH4 0x4E487B71 PUSH1 0xE0 SHL PUSH0 MSTORE PUSH1 0x22 PUSH1 0x4 MSTORE PUSH1 0x24 PUSH0 REVERT JUMPDEST POP SWAP2 SWAP1 POP JUMP JUMPDEST PUSH1 0x20 DUP1 DUP3 MSTORE PUSH1 0x23 SWAP1 DUP3 ADD MSTORE PUSH32 0x546F6B656E20616D6F756E74206D757374206265206772656174657220746861 PUSH1 0x40 DUP3 ADD MSTORE PUSH3 0x6E203 PUSH1 0xEC SHL PUSH1 0x60 DUP3 ADD MSTORE PUSH1 0x80 ADD SWAP1 JUMP JUMPDEST PUSH4 0x4E487B71 PUSH1 0xE0 SHL PUSH0 MSTORE PUSH1 0x41 PUSH1 0x4 MSTORE PUSH1 0x24 PUSH0 REVERT JUMPDEST PUSH0 PUSH1 0x20 DUP3 DUP5 SUB SLT ISZERO PUSH2 0x1A45 JUMPI PUSH0 DUP1 REVERT JUMPDEST DUP2 MLOAD PUSH8 0xFFFFFFFFFFFFFFFF DUP1 DUP3 GT ISZERO PUSH2 0x1A5C JUMPI PUSH0 DUP1 REVERT JUMPDEST DUP2 DUP5 ADD SWAP2 POP DUP5 PUSH1 0x1F DUP4 ADD SLT PUSH2 0x1A6F JUMPI PUSH0 DUP1 REVERT JUMPDEST DUP2 MLOAD DUP2 DUP2 GT ISZERO PUSH2 0x1A81 JUMPI PUSH2 0x1A81 PUSH2 0x1A21 JUMP JUMPDEST PUSH1 0x40 MLOAD PUSH1 0x1F DUP3 ADD PUSH1 0x1F NOT SWAP1 DUP2 AND PUSH1 0x3F ADD AND DUP2 ADD SWAP1 DUP4 DUP3 GT DUP2 DUP4 LT OR ISZERO PUSH2 0x1AA9 JUMPI PUSH2 0x1AA9 PUSH2 0x1A21 JUMP JUMPDEST DUP2 PUSH1 0x40 MSTORE DUP3 DUP2 MSTORE DUP8 PUSH1 0x20 DUP5 DUP8 ADD ADD GT ISZERO PUSH2 0x1AC1 JUMPI PUSH0 DUP1 REVERT JUMPDEST PUSH2 0x1AD2 DUP4 PUSH1 0x20 DUP4 ADD PUSH1 0x20 DUP9 ADD PUSH2 0x178C JUMP JUMPDEST SWAP8 SWAP7 POP POP POP POP POP POP POP JUMP JUMPDEST PUSH0 DUP1 PUSH0 PUSH1 0x60 DUP5 DUP7 SUB SLT ISZERO PUSH2 0x1AEF JUMPI PUSH0 DUP1 REVERT JUMPDEST DUP4 MLOAD SWAP3 POP PUSH1 0x20 DUP5 ADD MLOAD SWAP2 POP PUSH1 0x40 DUP5 ADD MLOAD SWAP1 POP SWAP3 POP SWAP3 POP SWAP3 JUMP INVALID LOG2 PUSH5 0x6970667358 0x22 SLT KECCAK256 SSTORE 0x4F EXTCODEHASH 0xED CALLCODE SWAP3 SWAP2 0xC5 LOG0 BASEFEE SWAP14 SWAP8 0xA5 CALLVALUE 0x4A 0x2D 0x2B CHAINID 0xDD 0xBD 0xD1 0xCA 0xD8 0x5E 0xA7 0xAA 0xC 0xFC 0xEF 0xCF POP 0xEB PUSH5 0x736F6C6343 STOP ADDMOD EQ STOP CALLER "
		},
		"gasEstimates": {
			"creation": {
				"codeDepositCost": "1394800",
				"executionCost": "infinite",
				"totalCost": "infinite"
			},
			"external": {
				"INITIAL_PRICE()": "305",
				"PRICE_INCREMENT()": "284",
				"allowance(address,address)": "infinite",
				"approve(address,uint256)": "24780",
				"balanceOf(address)": "2582",
				"buy(uint256)": "infinite",
				"calculateTokensForEth(uint256)": "infinite",
				"createdAt()": "infinite",
				"creator()": "infinite",
				"decimals()": "222",
				"dexRouter()": "infinite",
				"getCostToBuy(uint256)": "infinite",
				"getCurrentPrice()": "infinite",
				"getMarketCap()": "infinite",
				"getProceedsFromSell(uint256)": "infinite",
				"getTokenDetails()": "infinite",
				"isLiveOnDex()": "2377",
				"marketCapThreshold()": "infinite",
				"name()": "infinite",
				"owner()": "2365",
				"recoverFunds()": "infinite",
				"renounceOwnership()": "infinite",
				"sell(uint256,uint256)": "infinite",
				"symbol()": "infinite",
				"totalSupply()": "2381",
				"transfer(address,uint256)": "51261",
				"transferFrom(address,address,uint256)": "infinite",
				"transferOwnership(address)": "28399"
			},
			"internal": {
				"_migrateToDex()": "infinite"
			}
		},
		"methodIdentifiers": {
			"INITIAL_PRICE()": "7c5e2795",
			"PRICE_INCREMENT()": "6d25d802",
			"allowance(address,address)": "dd62ed3e",
			"approve(address,uint256)": "095ea7b3",
			"balanceOf(address)": "70a08231",
			"buy(uint256)": "d96a094a",
			"calculateTokensForEth(uint256)": "06fd9bf6",
			"createdAt()": "cf09e0d0",
			"creator()": "02d05d3f",
			"decimals()": "313ce567",
			"dexRouter()": "0758d924",
			"getCostToBuy(uint256)": "fdc42ee4",
			"getCurrentPrice()": "eb91d37e",
			"getMarketCap()": "90825c28",
			"getProceedsFromSell(uint256)": "f2b60323",
			"getTokenDetails()": "ff332ab7",
			"isLiveOnDex()": "48fc5135",
			"marketCapThreshold()": "70b0aec5",
			"name()": "06fdde03",
			"owner()": "8da5cb5b",
			"recoverFunds()": "b79550be",
			"renounceOwnership()": "715018a6",
			"sell(uint256,uint256)": "d79875eb",
			"symbol()": "95d89b41",
			"totalSupply()": "18160ddd",
			"transfer(address,uint256)": "a9059cbb",
			"transferFrom(address,address,uint256)": "23b872dd",
			"transferOwnership(address)": "f2fde38b"
		}
	},
	"abi": [
		{
			"inputs": [
				{
					"internalType": "string",
					"name": "name",
					"type": "string"
				},
				{
					"internalType": "string",
					"name": "symbol",
					"type": "string"
				},
				{
					"internalType": "uint256",
					"name": "_marketCapThreshold",
					"type": "uint256"
				},
				{
					"internalType": "address",
					"name": "_creator",
					"type": "address"
				},
				{
					"internalType": "address",
					"name": "_dexRouterAddress",
					"type": "address"
				}
			],
			"stateMutability": "nonpayable",
			"type": "constructor"
		},
		{
			"inputs": [
				{
					"internalType": "address",
					"name": "spender",
					"type": "address"
				},
				{
					"internalType": "uint256",
					"name": "allowance",
					"type": "uint256"
				},
				{
					"internalType": "uint256",
					"name": "needed",
					"type": "uint256"
				}
			],
			"name": "ERC20InsufficientAllowance",
			"type": "error"
		},
		{
			"inputs": [
				{
					"internalType": "address",
					"name": "sender",
					"type": "address"
				},
				{
					"internalType": "uint256",
					"name": "balance",
					"type": "uint256"
				},
				{
					"internalType": "uint256",
					"name": "needed",
					"type": "uint256"
				}
			],
			"name": "ERC20InsufficientBalance",
			"type": "error"
		},
		{
			"inputs": [
				{
					"internalType": "address",
					"name": "approver",
					"type": "address"
				}
			],
			"name": "ERC20InvalidApprover",
			"type": "error"
		},
		{
			"inputs": [
				{
					"internalType": "address",
					"name": "receiver",
					"type": "address"
				}
			],
			"name": "ERC20InvalidReceiver",
			"type": "error"
		},
		{
			"inputs": [
				{
					"internalType": "address",
					"name": "sender",
					"type": "address"
				}
			],
			"name": "ERC20InvalidSender",
			"type": "error"
		},
		{
			"inputs": [
				{
					"internalType": "address",
					"name": "spender",
					"type": "address"
				}
			],
			"name": "ERC20InvalidSpender",
			"type": "error"
		},
		{
			"inputs": [],
			"name": "FailedCall",
			"type": "error"
		},
		{
			"inputs": [
				{
					"internalType": "uint256",
					"name": "balance",
					"type": "uint256"
				},
				{
					"internalType": "uint256",
					"name": "needed",
					"type": "uint256"
				}
			],
			"name": "InsufficientBalance",
			"type": "error"
		},
		{
			"inputs": [
				{
					"internalType": "address",
					"name": "owner",
					"type": "address"
				}
			],
			"name": "OwnableInvalidOwner",
			"type": "error"
		},
		{
			"inputs": [
				{
					"internalType": "address",
					"name": "account",
					"type": "address"
				}
			],
			"name": "OwnableUnauthorizedAccount",
			"type": "error"
		},
		{
			"anonymous": false,
			"inputs": [
				{
					"indexed": true,
					"internalType": "address",
					"name": "owner",
					"type": "address"
				},
				{
					"indexed": true,
					"internalType": "address",
					"name": "spender",
					"type": "address"
				},
				{
					"indexed": false,
					"internalType": "uint256",
					"name": "value",
					"type": "uint256"
				}
			],
			"name": "Approval",
			"type": "event"
		},
		{
			"anonymous": false,
			"inputs": [
				{
					"indexed": true,
					"internalType": "address",
					"name": "buyer",
					"type": "address"
				},
				{
					"indexed": false,
					"internalType": "uint256",
					"name": "amountIn",
					"type": "uint256"
				},
				{
					"indexed": false,
					"internalType": "uint256",
					"name": "tokensOut",
					"type": "uint256"
				}
			],
			"name": "Bought",
			"type": "event"
		},
		{
			"anonymous": false,
			"inputs": [
				{
					"indexed": true,
					"internalType": "address",
					"name": "owner",
					"type": "address"
				},
				{
					"indexed": false,
					"internalType": "uint256",
					"name": "ethAmount",
					"type": "uint256"
				},
				{
					"indexed": false,
					"internalType": "uint256",
					"name": "tokenAmount",
					"type": "uint256"
				}
			],
			"name": "FundsRecovered",
			"type": "event"
		},
		{
			"anonymous": false,
			"inputs": [
				{
					"indexed": true,
					"internalType": "address",
					"name": "tokenAddress",
					"type": "address"
				},
				{
					"indexed": false,
					"internalType": "uint256",
					"name": "ethAmount",
					"type": "uint256"
				},
				{
					"indexed": false,
					"internalType": "uint256",
					"name": "tokenAmount",
					"type": "uint256"
				}
			],
			"name": "MigratedToDex",
			"type": "event"
		},
		{
			"anonymous": false,
			"inputs": [
				{
					"indexed": true,
					"internalType": "address",
					"name": "previousOwner",
					"type": "address"
				},
				{
					"indexed": true,
					"internalType": "address",
					"name": "newOwner",
					"type": "address"
				}
			],
			"name": "OwnershipTransferred",
			"type": "event"
		},
		{
			"anonymous": false,
			"inputs": [
				{
					"indexed": true,
					"internalType": "address",
					"name": "seller",
					"type": "address"
				},
				{
					"indexed": false,
					"internalType": "uint256",
					"name": "tokensIn",
					"type": "uint256"
				},
				{
					"indexed": false,
					"internalType": "uint256",
					"name": "amountOut",
					"type": "uint256"
				}
			],
			"name": "Sold",
			"type": "event"
		},
		{
			"anonymous": false,
			"inputs": [
				{
					"indexed": true,
					"internalType": "address",
					"name": "from",
					"type": "address"
				},
				{
					"indexed": true,
					"internalType": "address",
					"name": "to",
					"type": "address"
				},
				{
					"indexed": false,
					"internalType": "uint256",
					"name": "value",
					"type": "uint256"
				}
			],
			"name": "Transfer",
			"type": "event"
		},
		{
			"inputs": [],
			"name": "INITIAL_PRICE",
			"outputs": [
				{
					"internalType": "uint256",
					"name": "",
					"type": "uint256"
				}
			],
			"stateMutability": "view",
			"type": "function"
		},
		{
			"inputs": [],
			"name": "PRICE_INCREMENT",
			"outputs": [
				{
					"internalType": "uint256",
					"name": "",
					"type": "uint256"
				}
			],
			"stateMutability": "view",
			"type": "function"
		},
		{
			"inputs": [
				{
					"internalType": "address",
					"name": "owner",
					"type": "address"
				},
				{
					"internalType": "address",
					"name": "spender",
					"type": "address"
				}
			],
			"name": "allowance",
			"outputs": [
				{
					"internalType": "uint256",
					"name": "",
					"type": "uint256"
				}
			],
			"stateMutability": "view",
			"type": "function"
		},
		{
			"inputs": [
				{
					"internalType": "address",
					"name": "spender",
					"type": "address"
				},
				{
					"internalType": "uint256",
					"name": "value",
					"type": "uint256"
				}
			],
			"name": "approve",
			"outputs": [
				{
					"internalType": "bool",
					"name": "",
					"type": "bool"
				}
			],
			"stateMutability": "nonpayable",
			"type": "function"
		},
		{
			"inputs": [
				{
					"internalType": "address",
					"name": "account",
					"type": "address"
				}
			],
			"name": "balanceOf",
			"outputs": [
				{
					"internalType": "uint256",
					"name": "",
					"type": "uint256"
				}
			],
			"stateMutability": "view",
			"type": "function"
		},
		{
			"inputs": [
				{
					"internalType": "uint256",
					"name": "minTokensToReceive",
					"type": "uint256"
				}
			],
			"name": "buy",
			"outputs": [],
			"stateMutability": "payable",
			"type": "function"
		},
		{
			"inputs": [
				{
					"internalType": "uint256",
					"name": "ethAmount",
					"type": "uint256"
				}
			],
			"name": "calculateTokensForEth",
			"outputs": [
				{
					"internalType": "uint256",
					"name": "",
					"type": "uint256"
				}
			],
			"stateMutability": "view",
			"type": "function"
		},
		{
			"inputs": [],
			"name": "createdAt",
			"outputs": [
				{
					"internalType": "uint256",
					"name": "",
					"type": "uint256"
				}
			],
			"stateMutability": "view",
			"type": "function"
		},
		{
			"inputs": [],
			"name": "creator",
			"outputs": [
				{
					"internalType": "address",
					"name": "",
					"type": "address"
				}
			],
			"stateMutability": "view",
			"type": "function"
		},
		{
			"inputs": [],
			"name": "decimals",
			"outputs": [
				{
					"internalType": "uint8",
					"name": "",
					"type": "uint8"
				}
			],
			"stateMutability": "view",
			"type": "function"
		},
		{
			"inputs": [],
			"name": "dexRouter",
			"outputs": [
				{
					"internalType": "contract IDEXRouter",
					"name": "",
					"type": "address"
				}
			],
			"stateMutability": "view",
			"type": "function"
		},
		{
			"inputs": [
				{
					"internalType": "uint256",
					"name": "tokenAmount",
					"type": "uint256"
				}
			],
			"name": "getCostToBuy",
			"outputs": [
				{
					"internalType": "uint256",
					"name": "",
					"type": "uint256"
				}
			],
			"stateMutability": "view",
			"type": "function"
		},
		{
			"inputs": [],
			"name": "getCurrentPrice",
			"outputs": [
				{
					"internalType": "uint256",
					"name": "",
					"type": "uint256"
				}
			],
			"stateMutability": "view",
			"type": "function"
		},
		{
			"inputs": [],
			"name": "getMarketCap",
			"outputs": [
				{
					"internalType": "uint256",
					"name": "",
					"type": "uint256"
				}
			],
			"stateMutability": "view",
			"type": "function"
		},
		{
			"inputs": [
				{
					"internalType": "uint256",
					"name": "tokenAmount",
					"type": "uint256"
				}
			],
			"name": "getProceedsFromSell",
			"outputs": [
				{
					"internalType": "uint256",
					"name": "",
					"type": "uint256"
				}
			],
			"stateMutability": "view",
			"type": "function"
		},
		{
			"inputs": [],
			"name": "getTokenDetails",
			"outputs": [
				{
					"internalType": "string",
					"name": "tokenName",
					"type": "string"
				},
				{
					"internalType": "string",
					"name": "tokenSymbol",
					"type": "string"
				},
				{
					"internalType": "uint256",
					"name": "currentPrice",
					"type": "uint256"
				},
				{
					"internalType": "uint256",
					"name": "marketCap",
					"type": "uint256"
				},
				{
					"internalType": "bool",
					"name": "liveOnDex",
					"type": "bool"
				},
				{
					"internalType": "uint256",
					"name": "tokenSupply",
					"type": "uint256"
				}
			],
			"stateMutability": "view",
			"type": "function"
		},
		{
			"inputs": [],
			"name": "isLiveOnDex",
			"outputs": [
				{
					"internalType": "bool",
					"name": "",
					"type": "bool"
				}
			],
			"stateMutability": "view",
			"type": "function"
		},
		{
			"inputs": [],
			"name": "marketCapThreshold",
			"outputs": [
				{
					"internalType": "uint256",
					"name": "",
					"type": "uint256"
				}
			],
			"stateMutability": "view",
			"type": "function"
		},
		{
			"inputs": [],
			"name": "name",
			"outputs": [
				{
					"internalType": "string",
					"name": "",
					"type": "string"
				}
			],
			"stateMutability": "view",
			"type": "function"
		},
		{
			"inputs": [],
			"name": "owner",
			"outputs": [
				{
					"internalType": "address",
					"name": "",
					"type": "address"
				}
			],
			"stateMutability": "view",
			"type": "function"
		},
		{
			"inputs": [],
			"name": "recoverFunds",
			"outputs": [],
			"stateMutability": "nonpayable",
			"type": "function"
		},
		{
			"inputs": [],
			"name": "renounceOwnership",
			"outputs": [],
			"stateMutability": "nonpayable",
			"type": "function"
		},
		{
			"inputs": [
				{
					"internalType": "uint256",
					"name": "tokenAmount",
					"type": "uint256"
				},
				{
					"internalType": "uint256",
					"name": "minEthToReceive",
					"type": "uint256"
				}
			],
			"name": "sell",
			"outputs": [],
			"stateMutability": "nonpayable",
			"type": "function"
		},
		{
			"inputs": [],
			"name": "symbol",
			"outputs": [
				{
					"internalType": "string",
					"name": "",
					"type": "string"
				}
			],
			"stateMutability": "view",
			"type": "function"
		},
		{
			"inputs": [],
			"name": "totalSupply",
			"outputs": [
				{
					"internalType": "uint256",
					"name": "",
					"type": "uint256"
				}
			],
			"stateMutability": "view",
			"type": "function"
		},
		{
			"inputs": [
				{
					"internalType": "address",
					"name": "to",
					"type": "address"
				},
				{
					"internalType": "uint256",
					"name": "value",
					"type": "uint256"
				}
			],
			"name": "transfer",
			"outputs": [
				{
					"internalType": "bool",
					"name": "",
					"type": "bool"
				}
			],
			"stateMutability": "nonpayable",
			"type": "function"
		},
		{
			"inputs": [
				{
					"internalType": "address",
					"name": "from",
					"type": "address"
				},
				{
					"internalType": "address",
					"name": "to",
					"type": "address"
				},
				{
					"internalType": "uint256",
					"name": "value",
					"type": "uint256"
				}
			],
			"name": "transferFrom",
			"outputs": [
				{
					"internalType": "bool",
					"name": "",
					"type": "bool"
				}
			],
			"stateMutability": "nonpayable",
			"type": "function"
		},
		{
			"inputs": [
				{
					"internalType": "address",
					"name": "newOwner",
					"type": "address"
				}
			],
			"name": "transferOwnership",
			"outputs": [],
			"stateMutability": "nonpayable",
			"type": "function"
		},
		{
			"stateMutability": "payable",
			"type": "receive"
		}
	]
}